{
  "contractName": "Contract",
  "abi": [
    {
      "inputs": [
        {
          "internalType": "bytes",
          "name": "identifier",
          "type": "bytes"
        },
        {
          "internalType": "address[]",
          "name": "parties",
          "type": "address[]"
        },
        {
          "internalType": "contract NFToken",
          "name": "nfToken",
          "type": "address"
        },
        {
          "internalType": "uint256[]",
          "name": "deonticExpressionsIds",
          "type": "uint256[]"
        },
        {
          "internalType": "uint256[]",
          "name": "objects",
          "type": "uint256[]"
        },
        {
          "internalType": "address[]",
          "name": "relatedContracts",
          "type": "address[]"
        },
        {
          "internalType": "uint256[]",
          "name": "relations",
          "type": "uint256[]"
        },
        {
          "internalType": "address[]",
          "name": "incomeBeneficiaries",
          "type": "address[]"
        },
        {
          "internalType": "uint256[]",
          "name": "incomePercentages",
          "type": "uint256[]"
        },
        {
          "internalType": "string",
          "name": "contentUri",
          "type": "string"
        },
        {
          "internalType": "bytes",
          "name": "contentHash",
          "type": "bytes"
        }
      ],
      "stateMutability": "nonpayable",
      "type": "constructor"
    },
    {
      "inputs": [],
      "name": "_contentHash",
      "outputs": [
        {
          "internalType": "bytes",
          "name": "",
          "type": "bytes"
        }
      ],
      "stateMutability": "view",
      "type": "function"
    },
    {
      "inputs": [],
      "name": "_contentUri",
      "outputs": [
        {
          "internalType": "string",
          "name": "",
          "type": "string"
        }
      ],
      "stateMutability": "view",
      "type": "function"
    },
    {
      "inputs": [],
      "name": "_nfToken",
      "outputs": [
        {
          "internalType": "contract NFToken",
          "name": "",
          "type": "address"
        }
      ],
      "stateMutability": "view",
      "type": "function"
    },
    {
      "inputs": [
        {
          "internalType": "address payable",
          "name": "beneficiary",
          "type": "address"
        },
        {
          "internalType": "uint256",
          "name": "amount",
          "type": "uint256"
        }
      ],
      "name": "payTo",
      "outputs": [],
      "stateMutability": "payable",
      "type": "function"
    },
    {
      "inputs": [],
      "name": "getParties",
      "outputs": [
        {
          "internalType": "address[]",
          "name": "",
          "type": "address[]"
        }
      ],
      "stateMutability": "view",
      "type": "function"
    },
    {
      "inputs": [],
      "name": "getDeonticExpressions",
      "outputs": [
        {
          "internalType": "uint256[]",
          "name": "",
          "type": "uint256[]"
        }
      ],
      "stateMutability": "view",
      "type": "function"
    },
    {
      "inputs": [],
      "name": "getObjects",
      "outputs": [
        {
          "internalType": "uint256[]",
          "name": "",
          "type": "uint256[]"
        }
      ],
      "stateMutability": "view",
      "type": "function"
    }
  ],
  "bytecode": "0x60806040523480156200001157600080fd5b50604051620020ee380380620020ee833981810160405281019062000037919062000a1c565b8a600090805190602001906200004f9291906200066e565b5060005b8a51811015620000d057620000b98b82815181106200009b577f4e487b7100000000000000000000000000000000000000000000000000000000600052603260045260246000fd5b60200260200101516001620004d960201b6200077e1790919060201c565b508080620000c79062000e04565b91505062000053565b5088600360006101000a81548173ffffffffffffffffffffffffffffffffffffffff021916908373ffffffffffffffffffffffffffffffffffffffff16021790555060005b885181101562000192576200017b8982815181106200015d577f4e487b7100000000000000000000000000000000000000000000000000000000600052603260045260246000fd5b602002602001015160046200051160201b620007ae1790919060201c565b508080620001899062000e04565b91505062000115565b5060005b87518110156200021357620001fc888281518110620001de577f4e487b7100000000000000000000000000000000000000000000000000000000600052603260045260246000fd5b602002602001015160066200051160201b620007ae1790919060201c565b5080806200020a9062000e04565b91505062000196565b5060005b8651811015620002d757620002c08782815181106200025f577f4e487b7100000000000000000000000000000000000000000000000000000000600052603260045260246000fd5b6020026020010151878381518110620002a1577f4e487b7100000000000000000000000000000000000000000000000000000000600052603260045260246000fd5b602002602001015160086200053360201b620007c8179092919060201c565b508080620002ce9062000e04565b91505062000217565b5060005b835181101562000495576000600b600087848151811062000325577f4e487b7100000000000000000000000000000000000000000000000000000000600052603260045260246000fd5b602002602001015173ffffffffffffffffffffffffffffffffffffffff1673ffffffffffffffffffffffffffffffffffffffff16815260200190815260200160002090506000858380620003799062000e04565b945081518110620003b3577f4e487b7100000000000000000000000000000000000000000000000000000000600052603260045260246000fd5b6020026020010151905060005b818110156200048c576200047588858151811062000407577f4e487b7100000000000000000000000000000000000000000000000000000000600052603260045260246000fd5b60200260200101518886806200041d9062000e04565b97508151811062000457577f4e487b7100000000000000000000000000000000000000000000000000000000600052603260045260246000fd5b6020026020010151856200053360201b620007c8179092919060201c565b508080620004839062000e04565b915050620003c0565b505050620002db565b5081600c9080519060200190620004ae929190620006ff565b5080600d9080519060200190620004c79291906200066e565b50505050505050505050505062000f3e565b600062000509836000018373ffffffffffffffffffffffffffffffffffffffff1660001b6200057060201b60201c565b905092915050565b60006200052b836000018360001b6200057060201b60201c565b905092915050565b600062000567846000018473ffffffffffffffffffffffffffffffffffffffff1660001b8460001b620005ea60201b60201c565b90509392505050565b60006200058483836200062c60201b60201c565b620005df578260000182908060018154018082558091505060019003906000526020600020016000909190919091505582600001805490508360010160008481526020019081526020016000208190555060019050620005e4565b600090505b92915050565b600081846002016000858152602001908152602001600020819055506200062383856000016200064f60201b620007fd1790919060201c565b90509392505050565b600080836001016000848152602001908152602001600020541415905092915050565b60006200066683600001836200057060201b60201c565b905092915050565b8280546200067c9062000d98565b90600052602060002090601f016020900481019282620006a05760008555620006ec565b82601f10620006bb57805160ff1916838001178555620006ec565b82800160010185558215620006ec579182015b82811115620006eb578251825591602001919060010190620006ce565b5b509050620006fb919062000790565b5090565b8280546200070d9062000d98565b90600052602060002090601f0160209004810192826200073157600085556200077d565b82601f106200074c57805160ff19168380011785556200077d565b828001600101855582156200077d579182015b828111156200077c5782518255916020019190600101906200075f565b5b5090506200078c919062000790565b5090565b5b80821115620007ab57600081600090555060010162000791565b5090565b6000620007c6620007c08462000c46565b62000c1d565b90508083825260208201905082856020860282011115620007e657600080fd5b60005b858110156200081a5781620007ff888262000923565b845260208401935060208301925050600181019050620007e9565b5050509392505050565b60006200083b620008358462000c75565b62000c1d565b905080838252602082019050828560208602820111156200085b57600080fd5b60005b858110156200088f578162000874888262000a05565b8452602084019350602083019250506001810190506200085e565b5050509392505050565b6000620008b0620008aa8462000ca4565b62000c1d565b905082815260208101848484011115620008c957600080fd5b620008d684828562000d62565b509392505050565b6000620008f5620008ef8462000cda565b62000c1d565b9050828152602081018484840111156200090e57600080fd5b6200091b84828562000d62565b509392505050565b600081519050620009348162000ef0565b92915050565b600082601f8301126200094c57600080fd5b81516200095e848260208601620007af565b91505092915050565b600082601f8301126200097957600080fd5b81516200098b84826020860162000824565b91505092915050565b600082601f830112620009a657600080fd5b8151620009b884826020860162000899565b91505092915050565b600081519050620009d28162000f0a565b92915050565b600082601f830112620009ea57600080fd5b8151620009fc848260208601620008de565b91505092915050565b60008151905062000a168162000f24565b92915050565b60008060008060008060008060008060006101608c8e03121562000a3f57600080fd5b60008c015167ffffffffffffffff81111562000a5a57600080fd5b62000a688e828f0162000994565b9b505060208c015167ffffffffffffffff81111562000a8657600080fd5b62000a948e828f016200093a565b9a5050604062000aa78e828f01620009c1565b99505060608c015167ffffffffffffffff81111562000ac557600080fd5b62000ad38e828f0162000967565b98505060808c015167ffffffffffffffff81111562000af157600080fd5b62000aff8e828f0162000967565b97505060a08c015167ffffffffffffffff81111562000b1d57600080fd5b62000b2b8e828f016200093a565b96505060c08c015167ffffffffffffffff81111562000b4957600080fd5b62000b578e828f0162000967565b95505060e08c015167ffffffffffffffff81111562000b7557600080fd5b62000b838e828f016200093a565b9450506101008c015167ffffffffffffffff81111562000ba257600080fd5b62000bb08e828f0162000967565b9350506101208c015167ffffffffffffffff81111562000bcf57600080fd5b62000bdd8e828f01620009d8565b9250506101408c015167ffffffffffffffff81111562000bfc57600080fd5b62000c0a8e828f0162000994565b9150509295989b509295989b9093969950565b600062000c2962000c3c565b905062000c37828262000dce565b919050565b6000604051905090565b600067ffffffffffffffff82111562000c645762000c6362000eb0565b5b602082029050602081019050919050565b600067ffffffffffffffff82111562000c935762000c9262000eb0565b5b602082029050602081019050919050565b600067ffffffffffffffff82111562000cc25762000cc162000eb0565b5b62000ccd8262000edf565b9050602081019050919050565b600067ffffffffffffffff82111562000cf85762000cf762000eb0565b5b62000d038262000edf565b9050602081019050919050565b600062000d1d8262000d38565b9050919050565b600062000d318262000d10565b9050919050565b600073ffffffffffffffffffffffffffffffffffffffff82169050919050565b6000819050919050565b60005b8381101562000d8257808201518184015260208101905062000d65565b8381111562000d92576000848401525b50505050565b6000600282049050600182168062000db157607f821691505b6020821081141562000dc85762000dc762000e81565b5b50919050565b62000dd98262000edf565b810181811067ffffffffffffffff8211171562000dfb5762000dfa62000eb0565b5b80604052505050565b600062000e118262000d58565b91507fffffffffffffffffffffffffffffffffffffffffffffffffffffffffffffffff82141562000e475762000e4662000e52565b5b600182019050919050565b7f4e487b7100000000000000000000000000000000000000000000000000000000600052601160045260246000fd5b7f4e487b7100000000000000000000000000000000000000000000000000000000600052602260045260246000fd5b7f4e487b7100000000000000000000000000000000000000000000000000000000600052604160045260246000fd5b6000601f19601f8301169050919050565b62000efb8162000d10565b811462000f0757600080fd5b50565b62000f158162000d24565b811462000f2157600080fd5b50565b62000f2f8162000d58565b811462000f3b57600080fd5b50565b6111a08062000f4e6000396000f3fe6080604052600436106100705760003560e01c80636090e09e1161004e5780636090e09e146100f65780637bf086211461012157806398f960721461013d578063a8311aa81461016857610070565b80631665ff7c1461007557806318a02891146100a0578063441b5251146100cb575b600080fd5b34801561008157600080fd5b5061008a610193565b6040516100979190610d25565b60405180910390f35b3480156100ac57600080fd5b506100b5610299565b6040516100c29190610d47565b60405180910390f35b3480156100d757600080fd5b506100e0610327565b6040516100ed9190610d25565b60405180910390f35b34801561010257600080fd5b5061010b61042d565b6040516101189190610d84565b60405180910390f35b61013b60048036038101906101369190610b19565b6104bb565b005b34801561014957600080fd5b50610152610624565b60405161015f9190610d69565b60405180910390f35b34801561017457600080fd5b5061017d61064a565b60405161018a9190610d03565b60405180910390f35b606060006101a16006610814565b67ffffffffffffffff8111156101e0577f4e487b7100000000000000000000000000000000000000000000000000000000600052604160045260246000fd5b60405190808252806020026020018201604052801561020e5781602001602082028036833780820191505090505b50905060005b61021e6006610814565b8110156102915761023981600661082990919063ffffffff16565b828281518110610272577f4e487b7100000000000000000000000000000000000000000000000000000000600052603260045260246000fd5b602002602001018181525050808061028990611006565b915050610214565b508091505090565b600d80546102a690610fd4565b80601f01602080910402602001604051908101604052809291908181526020018280546102d290610fd4565b801561031f5780601f106102f45761010080835404028352916020019161031f565b820191906000526020600020905b81548152906001019060200180831161030257829003601f168201915b505050505081565b606060006103356004610814565b67ffffffffffffffff811115610374577f4e487b7100000000000000000000000000000000000000000000000000000000600052604160045260246000fd5b6040519080825280602002602001820160405280156103a25781602001602082028036833780820191505090505b50905060005b6103b26004610814565b811015610425576103cd81600461082990919063ffffffff16565b828281518110610406577f4e487b7100000000000000000000000000000000000000000000000000000000600052603260045260246000fd5b602002602001018181525050808061041d90611006565b9150506103a8565b508091505090565b600c805461043a90610fd4565b80601f016020809104026020016040519081016040528092919081815260200182805461046690610fd4565b80156104b35780601f10610488576101008083540402835291602001916104b3565b820191906000526020600020905b81548152906001019060200180831161049657829003601f168201915b505050505081565b60008190506000610509600b60008673ffffffffffffffffffffffffffffffffffffffff1673ffffffffffffffffffffffffffffffffffffffff168152602001908152602001600020610843565b9050600081146105d75760005b818110156105d55760008061057283600b60008a73ffffffffffffffffffffffffffffffffffffffff1673ffffffffffffffffffffffffffffffffffffffff16815260200190815260200160002061085890919063ffffffff16565b91509150600061059e6064610590848a61088490919063ffffffff16565b61089a90919063ffffffff16565b90506105aa83826104bb565b6105bd81876108b090919063ffffffff16565b955050505080806105cd90611006565b915050610516565b505b8373ffffffffffffffffffffffffffffffffffffffff166108fc839081150290604051600060405180830381858888f1935050505015801561061d573d6000803e3d6000fd5b5050505050565b600360009054906101000a900473ffffffffffffffffffffffffffffffffffffffff1681565b6060600061065860016108c6565b67ffffffffffffffff811115610697577f4e487b7100000000000000000000000000000000000000000000000000000000600052604160045260246000fd5b6040519080825280602002602001820160405280156106c55781602001602082028036833780820191505090505b50905060005b6106d560016108c6565b811015610776576106f08160016108db90919063ffffffff16565b828281518110610729577f4e487b7100000000000000000000000000000000000000000000000000000000600052603260045260246000fd5b602002602001019073ffffffffffffffffffffffffffffffffffffffff16908173ffffffffffffffffffffffffffffffffffffffff1681525050808061076e90611006565b9150506106cb565b508091505090565b60006107a6836000018373ffffffffffffffffffffffffffffffffffffffff1660001b6108f5565b905092915050565b60006107c0836000018360001b6108f5565b905092915050565b60006107f4846000018473ffffffffffffffffffffffffffffffffffffffff1660001b8460001b610965565b90509392505050565b600061080c83600001836108f5565b905092915050565b6000610822826000016109a0565b9050919050565b600061083883600001836109b1565b60001c905092915050565b600061085182600001610a4b565b9050919050565b60008060008061086b8660000186610a60565b915091508160001c8160001c9350935050509250929050565b600081836108929190610ea1565b905092915050565b600081836108a89190610e70565b905092915050565b600081836108be9190610efb565b905092915050565b60006108d4826000016109a0565b9050919050565b60006108ea83600001836109b1565b60001c905092915050565b60006109018383610aa0565b61095a57826000018290806001815401808255809150506001900390600052602060002001600090919091909150558260000180549050836001016000848152602001908152602001600020819055506001905061095f565b600090505b92915050565b6000818460020160008581526020019081526020016000208190555061099783856000016107fd90919063ffffffff16565b90509392505050565b600081600001805490509050919050565b6000818360000180549050116109fc576040517f08c379a00000000000000000000000000000000000000000000000000000000081526004016109f390610da6565b60405180910390fd5b826000018281548110610a38577f4e487b7100000000000000000000000000000000000000000000000000000000600052603260045260246000fd5b9060005260206000200154905092915050565b6000610a5982600001610ac3565b9050919050565b6000806000610a7b8486600001610ad890919063ffffffff16565b9050808560020160008381526020019081526020016000205492509250509250929050565b600080836001016000848152602001908152602001600020541415905092915050565b6000610ad1826000016109a0565b9050919050565b6000610ae783600001836109b1565b905092915050565b600081359050610afe8161113c565b92915050565b600081359050610b1381611153565b92915050565b60008060408385031215610b2c57600080fd5b6000610b3a85828601610aef565b9250506020610b4b85828601610b04565b9150509250929050565b6000610b618383610b85565b60208301905092915050565b6000610b798383610cf4565b60208301905092915050565b610b8e81610f2f565b82525050565b6000610b9f82610de6565b610ba98185610e2c565b9350610bb483610dc6565b8060005b83811015610be5578151610bcc8882610b55565b9750610bd783610e12565b925050600181019050610bb8565b5085935050505092915050565b6000610bfd82610df1565b610c078185610e3d565b9350610c1283610dd6565b8060005b83811015610c43578151610c2a8882610b6d565b9750610c3583610e1f565b925050600181019050610c16565b5085935050505092915050565b6000610c5b82610dfc565b610c658185610e4e565b9350610c75818560208601610fa1565b610c7e816110dc565b840191505092915050565b610c9281610f7d565b82525050565b6000610ca382610e07565b610cad8185610e5f565b9350610cbd818560208601610fa1565b610cc6816110dc565b840191505092915050565b6000610cde602283610e5f565b9150610ce9826110ed565b604082019050919050565b610cfd81610f73565b82525050565b60006020820190508181036000830152610d1d8184610b94565b905092915050565b60006020820190508181036000830152610d3f8184610bf2565b905092915050565b60006020820190508181036000830152610d618184610c50565b905092915050565b6000602082019050610d7e6000830184610c89565b92915050565b60006020820190508181036000830152610d9e8184610c98565b905092915050565b60006020820190508181036000830152610dbf81610cd1565b9050919050565b6000819050602082019050919050565b6000819050602082019050919050565b600081519050919050565b600081519050919050565b600081519050919050565b600081519050919050565b6000602082019050919050565b6000602082019050919050565b600082825260208201905092915050565b600082825260208201905092915050565b600082825260208201905092915050565b600082825260208201905092915050565b6000610e7b82610f73565b9150610e8683610f73565b925082610e9657610e9561107e565b5b828204905092915050565b6000610eac82610f73565b9150610eb783610f73565b9250817fffffffffffffffffffffffffffffffffffffffffffffffffffffffffffffffff0483118215151615610ef057610eef61104f565b5b828202905092915050565b6000610f0682610f73565b9150610f1183610f73565b925082821015610f2457610f2361104f565b5b828203905092915050565b6000610f3a82610f53565b9050919050565b6000610f4c82610f53565b9050919050565b600073ffffffffffffffffffffffffffffffffffffffff82169050919050565b6000819050919050565b6000610f8882610f8f565b9050919050565b6000610f9a82610f53565b9050919050565b60005b83811015610fbf578082015181840152602081019050610fa4565b83811115610fce576000848401525b50505050565b60006002820490506001821680610fec57607f821691505b6020821081141561100057610fff6110ad565b5b50919050565b600061101182610f73565b91507fffffffffffffffffffffffffffffffffffffffffffffffffffffffffffffffff8214156110445761104361104f565b5b600182019050919050565b7f4e487b7100000000000000000000000000000000000000000000000000000000600052601160045260246000fd5b7f4e487b7100000000000000000000000000000000000000000000000000000000600052601260045260246000fd5b7f4e487b7100000000000000000000000000000000000000000000000000000000600052602260045260246000fd5b6000601f19601f8301169050919050565b7f456e756d657261626c655365743a20696e646578206f7574206f6620626f756e60008201527f6473000000000000000000000000000000000000000000000000000000000000602082015250565b61114581610f41565b811461115057600080fd5b50565b61115c81610f73565b811461116757600080fd5b5056fea26469706673582212200d83ed95551a15c03dd7ef53a8215ac3bd05d454ce37923b170cca0752b80c6564736f6c63430008030033",
  "immutableReferences": {},
  "source": "// SPDX-License-Identifier: MIT\npragma solidity ^0.8.0;\n\nimport \"./NFToken.sol\";\nimport \"./EnumerableMapAddressToUint.sol\";\nimport \"@openzeppelin/contracts/utils/math/SafeMath.sol\";\n\n//import \"@openzeppelin/contracts/utils/structs/EnumerableSet.sol\";\n\ncontract Contract {\n    using SafeMath for uint256;\n    using EnumerableSet for EnumerableSet.AddressSet;\n    using EnumerableSet for EnumerableSet.UintSet;\n    using EnumerableMap for EnumerableMap.AddressToUintMap;\n\n    // Contract unique identifier\n    bytes private _identifier;\n    // Contract parties address\n    EnumerableSet.AddressSet _parties;\n    // Contract deontic expression NFtoken\n    NFToken public _nfToken;\n    // Contract deontic expressions token id\n    EnumerableSet.UintSet _deonticExpressions;\n    // Contract objects token id\n    EnumerableSet.UintSet _objects;\n    // Contract relations with other contracts\n    EnumerableMap.AddressToUintMap _contractRelations;\n    // Contract related income percentages for payments\n    mapping(address => EnumerableMap.AddressToUintMap) _incomePercentages;\n    // Contract content URI\n    string public _contentUri;\n    // Contract content HASH\n    bytes public _contentHash;\n\n    constructor(\n        bytes memory identifier,\n        address[] memory parties,\n        NFToken nfToken,\n        uint256[] memory deonticExpressionsIds,\n        uint256[] memory objects,\n        address[] memory relatedContracts,\n        uint256[] memory relations,\n        address[] memory incomeBeneficiaries,\n        uint256[] memory incomePercentages,\n        string memory contentUri,\n        bytes memory contentHash\n    ) {\n        _identifier = identifier;\n        for (uint256 i = 0; i < parties.length; i++) {\n            _parties.add(parties[i]);\n        }\n        _nfToken = nfToken;\n        for (uint256 i = 0; i < deonticExpressionsIds.length; i++) {\n            _deonticExpressions.add(deonticExpressionsIds[i]);\n        }\n        for (uint256 i = 0; i < objects.length; i++) {\n            _objects.add(objects[i]);\n        }\n        for (uint256 i = 0; i < relatedContracts.length; i++) {\n            _contractRelations.set(relatedContracts[i], relations[i]);\n        }\n        for (uint256 i = 0; i < incomePercentages.length; ) {\n            EnumerableMap.AddressToUintMap storage incomeMap =\n                _incomePercentages[incomeBeneficiaries[i]];\n            uint256 shares = incomePercentages[i++];\n            for (uint256 j = 0; j < shares; j++) {\n                incomeMap.set(incomeBeneficiaries[i], incomePercentages[i++]);\n            }\n        }\n        _contentUri = contentUri;\n        _contentHash = contentHash;\n    }\n\n    function payTo(address payable beneficiary, uint256 amount) public payable {\n        uint256 finalAmount = amount;\n        uint256 l = _incomePercentages[beneficiary].length();\n        if (l != 0) {\n            for (uint256 i = 0; i < l; i++) {\n                (address incomeBeneficiary, uint256 incomePercentage) =\n                    _incomePercentages[beneficiary].at(i);\n                uint256 subAmount = amount.mul(incomePercentage).div(100);\n                payTo(payable(incomeBeneficiary), subAmount);\n                finalAmount = finalAmount.sub(subAmount);\n            }\n        }\n        beneficiary.transfer(finalAmount);\n    }\n\n    function getParties() public view returns (address[] memory) {\n        address[] memory parties = new address[](_parties.length());\n        for (uint256 i = 0; i < _parties.length(); i++) {\n            parties[i] = _parties.at(i);\n        }\n\n        return parties;\n    }\n\n    function getDeonticExpressions() public view returns (uint256[] memory) {\n        uint256[] memory deontics = new uint256[](_deonticExpressions.length());\n        for (uint256 i = 0; i < _deonticExpressions.length(); i++) {\n            deontics[i] = _deonticExpressions.at(i);\n        }\n\n        return deontics;\n    }\n\n    function getObjects() public view returns (uint256[] memory) {\n        uint256[] memory objects = new uint256[](_objects.length());\n        for (uint256 i = 0; i < _objects.length(); i++) {\n            objects[i] = _objects.at(i);\n        }\n\n        return objects;\n    }\n}\n",
  "sourcePath": "/home/miker/workspace/mpeg/fantastic-memory/smart-contract-template/contracts/Contract.sol",
  "compiler": {
    "name": "solc",
    "version": "0.8.3+commit.8d00100c.Emscripten.clang"
  },
  "schemaVersion": "3.2.2",
  "updatedAt": "2021-04-01T10:32:08.202Z",
  "devdoc": {
    "kind": "dev",
    "methods": {},
    "version": 1
  },
  "userdoc": {
    "kind": "user",
    "methods": {},
    "version": 1
  }
}