{
  "contractName": "Contract",
  "abi": [
    {
      "inputs": [
        {
          "internalType": "bytes",
          "name": "identifier",
          "type": "bytes"
        },
        {
          "internalType": "address[]",
          "name": "parties",
          "type": "address[]"
        },
        {
          "internalType": "contract NFToken",
          "name": "nfToken",
          "type": "address"
        },
        {
          "internalType": "uint256[]",
          "name": "deonticExpressionsIds",
          "type": "uint256[]"
        },
        {
          "internalType": "uint256[]",
          "name": "objects",
          "type": "uint256[]"
        },
        {
          "internalType": "address[]",
          "name": "relatedContracts",
          "type": "address[]"
        },
        {
          "internalType": "string[]",
          "name": "relations",
          "type": "string[]"
        },
        {
          "internalType": "string",
          "name": "contentUri",
          "type": "string"
        },
        {
          "internalType": "bytes",
          "name": "contentHash",
          "type": "bytes"
        }
      ],
      "stateMutability": "nonpayable",
      "type": "constructor"
    },
    {
      "inputs": [],
      "name": "_contentHash",
      "outputs": [
        {
          "internalType": "bytes",
          "name": "",
          "type": "bytes"
        }
      ],
      "stateMutability": "view",
      "type": "function"
    },
    {
      "inputs": [],
      "name": "_contentUri",
      "outputs": [
        {
          "internalType": "string",
          "name": "",
          "type": "string"
        }
      ],
      "stateMutability": "view",
      "type": "function"
    },
    {
      "inputs": [
        {
          "internalType": "address",
          "name": "",
          "type": "address"
        }
      ],
      "name": "_contractRelations",
      "outputs": [
        {
          "internalType": "string",
          "name": "",
          "type": "string"
        }
      ],
      "stateMutability": "view",
      "type": "function"
    },
    {
      "inputs": [],
      "name": "_nfToken",
      "outputs": [
        {
          "internalType": "contract NFToken",
          "name": "",
          "type": "address"
        }
      ],
      "stateMutability": "view",
      "type": "function"
    }
  ],
  "bytecode": "0x60806040523480156200001157600080fd5b506040516200141e3803806200141e8339818101604052810190620000379190620008e5565b88600090805190602001906200004f929190620004a5565b5060005b8851811015620000d057620000b98982815181106200009b577f4e487b7100000000000000000000000000000000000000000000000000000000600052603260045260246000fd5b60200260200101516001620003ae60201b620002bd1790919060201c565b508080620000c79062000c9c565b91505062000053565b5086600360006101000a81548173ffffffffffffffffffffffffffffffffffffffff021916908373ffffffffffffffffffffffffffffffffffffffff16021790555060005b865181101562000192576200017b8782815181106200015d577f4e487b7100000000000000000000000000000000000000000000000000000000600052603260045260246000fd5b60200260200101516004620003e660201b620002ed1790919060201c565b508080620001899062000c9c565b91505062000115565b5060005b85518110156200021357620001fc868281518110620001de577f4e487b7100000000000000000000000000000000000000000000000000000000600052603260045260246000fd5b60200260200101516006620003e660201b620002ed1790919060201c565b5080806200020a9062000c9c565b91505062000196565b5060005b84518110156200036c576200027d8582815181106200025f577f4e487b7100000000000000000000000000000000000000000000000000000000600052603260045260246000fd5b60200260200101516008620003ae60201b620002bd1790919060201c565b50838181518110620002b8577f4e487b7100000000000000000000000000000000000000000000000000000000600052603260045260246000fd5b6020026020010151600a6000878481518110620002fe577f4e487b7100000000000000000000000000000000000000000000000000000000600052603260045260246000fd5b602002602001015173ffffffffffffffffffffffffffffffffffffffff1673ffffffffffffffffffffffffffffffffffffffff16815260200190815260200160002090805190602001906200035592919062000536565b508080620003639062000c9c565b91505062000217565b5081600b90805190602001906200038592919062000536565b5080600c90805190602001906200039e929190620004a5565b5050505050505050505062000dd6565b6000620003de836000018373ffffffffffffffffffffffffffffffffffffffff1660001b6200040860201b60201c565b905092915050565b600062000400836000018360001b6200040860201b60201c565b905092915050565b60006200041c83836200048260201b60201c565b620004775782600001829080600181540180825580915050600190039060005260206000200160009091909190915055826000018054905083600101600084815260200190815260200160002081905550600190506200047c565b600090505b92915050565b600080836001016000848152602001908152602001600020541415905092915050565b828054620004b39062000c30565b90600052602060002090601f016020900481019282620004d7576000855562000523565b82601f10620004f257805160ff191683800117855562000523565b8280016001018555821562000523579182015b828111156200052257825182559160200191906001019062000505565b5b509050620005329190620005c7565b5090565b828054620005449062000c30565b90600052602060002090601f016020900481019282620005685760008555620005b4565b82601f106200058357805160ff1916838001178555620005b4565b82800160010185558215620005b4579182015b82811115620005b357825182559160200191906001019062000596565b5b509050620005c39190620005c7565b5090565b5b80821115620005e2576000816000905550600101620005c8565b5090565b6000620005fd620005f78462000aaf565b62000a86565b905080838252602082019050828560208602820111156200061d57600080fd5b60005b85811015620006515781620006368882620007bf565b84526020840193506020830192505060018101905062000620565b5050509392505050565b6000620006726200066c8462000ade565b62000a86565b9050808382526020820190508260005b85811015620006b657815185016200069b8882620008a1565b84526020840193506020830192505060018101905062000682565b5050509392505050565b6000620006d7620006d18462000b0d565b62000a86565b90508083825260208201905082856020860282011115620006f757600080fd5b60005b858110156200072b5781620007108882620008ce565b845260208401935060208301925050600181019050620006fa565b5050509392505050565b60006200074c620007468462000b3c565b62000a86565b9050828152602081018484840111156200076557600080fd5b6200077284828562000bfa565b509392505050565b6000620007916200078b8462000b72565b62000a86565b905082815260208101848484011115620007aa57600080fd5b620007b784828562000bfa565b509392505050565b600081519050620007d08162000d88565b92915050565b600082601f830112620007e857600080fd5b8151620007fa848260208601620005e6565b91505092915050565b600082601f8301126200081557600080fd5b8151620008278482602086016200065b565b91505092915050565b600082601f8301126200084257600080fd5b815162000854848260208601620006c0565b91505092915050565b600082601f8301126200086f57600080fd5b81516200088184826020860162000735565b91505092915050565b6000815190506200089b8162000da2565b92915050565b600082601f830112620008b357600080fd5b8151620008c58482602086016200077a565b91505092915050565b600081519050620008df8162000dbc565b92915050565b60008060008060008060008060006101208a8c0312156200090557600080fd5b60008a015167ffffffffffffffff8111156200092057600080fd5b6200092e8c828d016200085d565b99505060208a015167ffffffffffffffff8111156200094c57600080fd5b6200095a8c828d01620007d6565b98505060406200096d8c828d016200088a565b97505060608a015167ffffffffffffffff8111156200098b57600080fd5b620009998c828d0162000830565b96505060808a015167ffffffffffffffff811115620009b757600080fd5b620009c58c828d0162000830565b95505060a08a015167ffffffffffffffff811115620009e357600080fd5b620009f18c828d01620007d6565b94505060c08a015167ffffffffffffffff81111562000a0f57600080fd5b62000a1d8c828d0162000803565b93505060e08a015167ffffffffffffffff81111562000a3b57600080fd5b62000a498c828d01620008a1565b9250506101008a015167ffffffffffffffff81111562000a6857600080fd5b62000a768c828d016200085d565b9150509295985092959850929598565b600062000a9262000aa5565b905062000aa0828262000c66565b919050565b6000604051905090565b600067ffffffffffffffff82111562000acd5762000acc62000d48565b5b602082029050602081019050919050565b600067ffffffffffffffff82111562000afc5762000afb62000d48565b5b602082029050602081019050919050565b600067ffffffffffffffff82111562000b2b5762000b2a62000d48565b5b602082029050602081019050919050565b600067ffffffffffffffff82111562000b5a5762000b5962000d48565b5b62000b658262000d77565b9050602081019050919050565b600067ffffffffffffffff82111562000b905762000b8f62000d48565b5b62000b9b8262000d77565b9050602081019050919050565b600062000bb58262000bd0565b9050919050565b600062000bc98262000ba8565b9050919050565b600073ffffffffffffffffffffffffffffffffffffffff82169050919050565b6000819050919050565b60005b8381101562000c1a57808201518184015260208101905062000bfd565b8381111562000c2a576000848401525b50505050565b6000600282049050600182168062000c4957607f821691505b6020821081141562000c605762000c5f62000d19565b5b50919050565b62000c718262000d77565b810181811067ffffffffffffffff8211171562000c935762000c9262000d48565b5b80604052505050565b600062000ca98262000bf0565b91507fffffffffffffffffffffffffffffffffffffffffffffffffffffffffffffffff82141562000cdf5762000cde62000cea565b5b600182019050919050565b7f4e487b7100000000000000000000000000000000000000000000000000000000600052601160045260246000fd5b7f4e487b7100000000000000000000000000000000000000000000000000000000600052602260045260246000fd5b7f4e487b7100000000000000000000000000000000000000000000000000000000600052604160045260246000fd5b6000601f19601f8301169050919050565b62000d938162000ba8565b811462000d9f57600080fd5b50565b62000dad8162000bbc565b811462000db957600080fd5b50565b62000dc78162000bf0565b811462000dd357600080fd5b50565b6106388062000de66000396000f3fe608060405234801561001057600080fd5b506004361061004c5760003560e01c806318a028911461005157806334b755f51461006f5780636090e09e1461009f57806398f96072146100bd575b600080fd5b6100596100db565b6040516100669190610459565b60405180910390f35b610089600480360381019061008491906103af565b610169565b6040516100969190610496565b60405180910390f35b6100a7610209565b6040516100b49190610496565b60405180910390f35b6100c5610297565b6040516100d2919061047b565b60405180910390f35b600c80546100e890610579565b80601f016020809104026020016040519081016040528092919081815260200182805461011490610579565b80156101615780601f1061013657610100808354040283529160200191610161565b820191906000526020600020905b81548152906001019060200180831161014457829003601f168201915b505050505081565b600a602052806000526040600020600091509050805461018890610579565b80601f01602080910402602001604051908101604052809291908181526020018280546101b490610579565b80156102015780601f106101d657610100808354040283529160200191610201565b820191906000526020600020905b8154815290600101906020018083116101e457829003601f168201915b505050505081565b600b805461021690610579565b80601f016020809104026020016040519081016040528092919081815260200182805461024290610579565b801561028f5780601f106102645761010080835404028352916020019161028f565b820191906000526020600020905b81548152906001019060200180831161027257829003601f168201915b505050505081565b600360009054906101000a900473ffffffffffffffffffffffffffffffffffffffff1681565b60006102e5836000018373ffffffffffffffffffffffffffffffffffffffff1660001b610307565b905092915050565b60006102ff836000018360001b610307565b905092915050565b60006103138383610377565b61036c578260000182908060018154018082558091505060019003906000526020600020016000909190919091505582600001805490508360010160008481526020019081526020016000208190555060019050610371565b600090505b92915050565b600080836001016000848152602001908152602001600020541415905092915050565b6000813590506103a9816105eb565b92915050565b6000602082840312156103c157600080fd5b60006103cf8482850161039a565b91505092915050565b60006103e3826104b8565b6103ed81856104ce565b93506103fd818560208601610546565b610406816105da565b840191505092915050565b61041a81610522565b82525050565b600061042b826104c3565b61043581856104df565b9350610445818560208601610546565b61044e816105da565b840191505092915050565b6000602082019050818103600083015261047381846103d8565b905092915050565b60006020820190506104906000830184610411565b92915050565b600060208201905081810360008301526104b08184610420565b905092915050565b600081519050919050565b600081519050919050565b600082825260208201905092915050565b600082825260208201905092915050565b60006104fb82610502565b9050919050565b600073ffffffffffffffffffffffffffffffffffffffff82169050919050565b600061052d82610534565b9050919050565b600061053f82610502565b9050919050565b60005b83811015610564578082015181840152602081019050610549565b83811115610573576000848401525b50505050565b6000600282049050600182168061059157607f821691505b602082108114156105a5576105a46105ab565b5b50919050565b7f4e487b7100000000000000000000000000000000000000000000000000000000600052602260045260246000fd5b6000601f19601f8301169050919050565b6105f4816104f0565b81146105ff57600080fd5b5056fea2646970667358221220415d863779c17dece8b9feb7bb34bf59bfab9b70f6c8937af223cbfd529d734964736f6c63430008030033",
  "immutableReferences": {},
  "source": "// SPDX-License-Identifier: MIT\npragma solidity ^0.8.0;\n\nimport \"./NFToken.sol\";\nimport \"@openzeppelin/contracts/utils/structs/EnumerableSet.sol\";\n\ncontract Contract {\n    using EnumerableSet for EnumerableSet.AddressSet;\n    using EnumerableSet for EnumerableSet.UintSet;\n\n    // Contract unique identifier\n    bytes private _identifier;\n    // Contract parties address\n    EnumerableSet.AddressSet _parties;\n    // Contract deontic expression NFtoken\n    NFToken public _nfToken;\n    // Contract deontic expressions token id\n    EnumerableSet.UintSet _deonticExpressions;\n    // Contract objects token id\n    EnumerableSet.UintSet _objects;\n    // Contract related contracts (on chain)\n    EnumerableSet.AddressSet _relatedContracts;\n    // Contract related contracts relations\n    mapping(address => string) public _contractRelations;\n    // Contract content URI\n    string public _contentUri;\n    // Contract content HASH\n    bytes public _contentHash;\n\n    constructor(\n        bytes memory identifier,\n        address[] memory parties,\n        NFToken nfToken,\n        uint256[] memory deonticExpressionsIds,\n        uint256[] memory objects,\n        address[] memory relatedContracts,\n        string[] memory relations,\n        string memory contentUri,\n        bytes memory contentHash\n    ) {\n        _identifier = identifier;\n        for (uint256 i = 0; i < parties.length; i++) {\n            _parties.add(parties[i]);\n        }\n        _nfToken = nfToken;\n        for (uint256 i = 0; i < deonticExpressionsIds.length; i++) {\n            _deonticExpressions.add(deonticExpressionsIds[i]);\n        }\n        for (uint256 i = 0; i < objects.length; i++) {\n            _objects.add(objects[i]);\n        }\n        for (uint256 i = 0; i < relatedContracts.length; i++) {\n            _relatedContracts.add(relatedContracts[i]);\n            _contractRelations[relatedContracts[i]] = relations[i];\n        }\n        _contentUri = contentUri;\n        _contentHash = contentHash;\n    }\n}\n",
  "sourcePath": "/home/miker/workspace/mpeg/fantastic-memory/smart-contract-template/contracts/Contract.sol",
  "compiler": {
    "name": "solc",
    "version": "0.8.3+commit.8d00100c.Emscripten.clang"
  },
  "schemaVersion": "3.3.1",
  "updatedAt": "2021-03-31T11:01:27.261Z",
  "devdoc": {
    "kind": "dev",
    "methods": {},
    "version": 1
  },
  "userdoc": {
    "kind": "user",
    "methods": {},
    "version": 1
  }
}