{
  "contractName": "Contract",
  "abi": [
    {
      "inputs": [
        {
          "internalType": "bytes",
          "name": "identifier",
          "type": "bytes"
        },
        {
          "internalType": "address[]",
          "name": "parties",
          "type": "address[]"
        },
        {
          "internalType": "contract NFToken",
          "name": "nfToken",
          "type": "address"
        },
        {
          "internalType": "uint256[]",
          "name": "deonticExpressionsIds",
          "type": "uint256[]"
        },
        {
          "internalType": "uint256[]",
          "name": "objects",
          "type": "uint256[]"
        },
        {
          "internalType": "address[]",
          "name": "relatedContracts",
          "type": "address[]"
        },
        {
          "internalType": "uint256[]",
          "name": "relations",
          "type": "uint256[]"
        },
        {
          "internalType": "address[]",
          "name": "incomeBeneficiaries",
          "type": "address[]"
        },
        {
          "internalType": "uint256[]",
          "name": "incomePercentages",
          "type": "uint256[]"
        },
        {
          "internalType": "string",
          "name": "contentUri",
          "type": "string"
        },
        {
          "internalType": "bytes",
          "name": "contentHash",
          "type": "bytes"
        }
      ],
      "stateMutability": "nonpayable",
      "type": "constructor"
    },
    {
      "inputs": [],
      "name": "_contentHash",
      "outputs": [
        {
          "internalType": "bytes",
          "name": "",
          "type": "bytes"
        }
      ],
      "stateMutability": "view",
      "type": "function"
    },
    {
      "inputs": [],
      "name": "_contentUri",
      "outputs": [
        {
          "internalType": "string",
          "name": "",
          "type": "string"
        }
      ],
      "stateMutability": "view",
      "type": "function"
    },
    {
      "inputs": [],
      "name": "_nfToken",
      "outputs": [
        {
          "internalType": "contract NFToken",
          "name": "",
          "type": "address"
        }
      ],
      "stateMutability": "view",
      "type": "function"
    },
    {
      "inputs": [
        {
          "internalType": "address payable",
          "name": "beneficiary",
          "type": "address"
        },
        {
          "internalType": "uint256",
          "name": "amount",
          "type": "uint256"
        }
      ],
      "name": "payTo",
      "outputs": [],
      "stateMutability": "payable",
      "type": "function"
    },
    {
      "inputs": [],
      "name": "getParties",
      "outputs": [
        {
          "internalType": "address[]",
          "name": "",
          "type": "address[]"
        }
      ],
      "stateMutability": "view",
      "type": "function"
    },
    {
      "inputs": [],
      "name": "getDeonticExpressions",
      "outputs": [
        {
          "internalType": "uint256[]",
          "name": "",
          "type": "uint256[]"
        }
      ],
      "stateMutability": "view",
      "type": "function"
    },
    {
      "inputs": [],
      "name": "getObjects",
      "outputs": [
        {
          "internalType": "uint256[]",
          "name": "",
          "type": "uint256[]"
        }
      ],
      "stateMutability": "view",
      "type": "function"
    },
    {
      "inputs": [],
      "name": "getContractRelations",
      "outputs": [
        {
          "internalType": "address[]",
          "name": "",
          "type": "address[]"
        },
        {
          "internalType": "uint256[]",
          "name": "",
          "type": "uint256[]"
        }
      ],
      "stateMutability": "view",
      "type": "function"
    },
    {
      "inputs": [
        {
          "internalType": "address",
          "name": "sharer",
          "type": "address"
        }
      ],
      "name": "getIncomePercentagesBy",
      "outputs": [
        {
          "internalType": "address[]",
          "name": "",
          "type": "address[]"
        },
        {
          "internalType": "uint256[]",
          "name": "",
          "type": "uint256[]"
        }
      ],
      "stateMutability": "view",
      "type": "function"
    }
  ],
  "bytecode": "0x608060405234801562000010575f80fd5b506040516200236738038062002367833981810160405281019062000036919062000989565b8a5f908162000046919062000df3565b505f5b8a518110156200009d57620000868b82815181106200006d576200006c62000ed7565b5b602002602001015160016200035a60201b90919060201c565b508080620000949062000f31565b91505062000049565b508860035f6101000a81548173ffffffffffffffffffffffffffffffffffffffff021916908373ffffffffffffffffffffffffffffffffffffffff1602179055505f5b885181101562000134576200011d89828151811062000104576200010362000ed7565b5b602002602001015160046200038f60201b90919060201c565b5080806200012b9062000f31565b915050620000e0565b505f5b87518110156200018b57620001748882815181106200015b576200015a62000ed7565b5b602002602001015160066200038f60201b90919060201c565b508080620001829062000f31565b91505062000137565b505f5b86518110156200020157620001ea878281518110620001b257620001b162000ed7565b5b6020026020010151878381518110620001d057620001cf62000ed7565b5b60200260200101516008620003ae60201b9092919060201c565b508080620001f89062000f31565b9150506200018e565b505f5b835181101562000324575f600b5f87848151811062000228576200022762000ed7565b5b602002602001015173ffffffffffffffffffffffffffffffffffffffff1673ffffffffffffffffffffffffffffffffffffffff1681526020019081526020015f2090505f8583806200027a9062000f31565b94508151811062000290576200028f62000ed7565b5b602002602001015190505f5b818110156200031b5762000304888581518110620002bf57620002be62000ed7565b5b6020026020010151888680620002d59062000f31565b975081518110620002eb57620002ea62000ed7565b5b602002602001015185620003ae60201b9092919060201c565b508080620003129062000f31565b9150506200029c565b50505062000204565b5081600c908162000336919062000fe9565b5080600d908162000348919062000df3565b505050505050505050505050620010cd565b5f62000387835f018373ffffffffffffffffffffffffffffffffffffffff165f1b620003e760201b60201c565b905092915050565b5f620003a6835f01835f1b620003e760201b60201c565b905092915050565b5f620003de845f018473ffffffffffffffffffffffffffffffffffffffff165f1b845f1b6200045860201b60201c565b90509392505050565b5f620003fa83836200049160201b60201c565b6200044e57825f0182908060018154018082558091505060019003905f5260205f20015f9091909190915055825f0180549050836001015f8481526020019081526020015f20819055506001905062000452565b5f90505b92915050565b5f81846002015f8581526020019081526020015f20819055506200048883855f01620004b160201b90919060201c565b90509392505050565b5f80836001015f8481526020019081526020015f20541415905092915050565b5f620004c6835f0183620003e760201b60201c565b905092915050565b5f604051905090565b5f80fd5b5f80fd5b5f80fd5b5f80fd5b5f601f19601f8301169050919050565b7f4e487b71000000000000000000000000000000000000000000000000000000005f52604160045260245ffd5b6200052f82620004e7565b810181811067ffffffffffffffff82111715620005515762000550620004f7565b5b80604052505050565b5f62000565620004ce565b905062000573828262000524565b919050565b5f67ffffffffffffffff821115620005955762000594620004f7565b5b620005a082620004e7565b9050602081019050919050565b5f5b83811015620005cc578082015181840152602081019050620005af565b5f8484015250505050565b5f620005ed620005e78462000578565b6200055a565b9050828152602081018484840111156200060c576200060b620004e3565b5b62000619848285620005ad565b509392505050565b5f82601f830112620006385762000637620004df565b5b81516200064a848260208601620005d7565b91505092915050565b5f67ffffffffffffffff82111562000670576200066f620004f7565b5b602082029050602081019050919050565b5f80fd5b5f73ffffffffffffffffffffffffffffffffffffffff82169050919050565b5f620006b08262000685565b9050919050565b620006c281620006a4565b8114620006cd575f80fd5b50565b5f81519050620006e081620006b7565b92915050565b5f620006fc620006f68462000653565b6200055a565b9050808382526020820190506020840283018581111562000722576200072162000681565b5b835b818110156200074f57806200073a8882620006d0565b84526020840193505060208101905062000724565b5050509392505050565b5f82601f83011262000770576200076f620004df565b5b815162000782848260208601620006e6565b91505092915050565b5f6200079782620006a4565b9050919050565b620007a9816200078b565b8114620007b4575f80fd5b50565b5f81519050620007c7816200079e565b92915050565b5f67ffffffffffffffff821115620007ea57620007e9620004f7565b5b602082029050602081019050919050565b5f819050919050565b6200080f81620007fb565b81146200081a575f80fd5b50565b5f815190506200082d8162000804565b92915050565b5f620008496200084384620007cd565b6200055a565b905080838252602082019050602084028301858111156200086f576200086e62000681565b5b835b818110156200089c57806200088788826200081d565b84526020840193505060208101905062000871565b5050509392505050565b5f82601f830112620008bd57620008bc620004df565b5b8151620008cf84826020860162000833565b91505092915050565b5f67ffffffffffffffff821115620008f557620008f4620004f7565b5b6200090082620004e7565b9050602081019050919050565b5f620009236200091d84620008d8565b6200055a565b905082815260208101848484011115620009425762000941620004e3565b5b6200094f848285620005ad565b509392505050565b5f82601f8301126200096e576200096d620004df565b5b8151620009808482602086016200090d565b91505092915050565b5f805f805f805f805f805f6101608c8e031215620009ac57620009ab620004d7565b5b5f8c015167ffffffffffffffff811115620009cc57620009cb620004db565b5b620009da8e828f0162000621565b9b505060208c015167ffffffffffffffff811115620009fe57620009fd620004db565b5b62000a0c8e828f0162000759565b9a5050604062000a1f8e828f01620007b7565b99505060608c015167ffffffffffffffff81111562000a435762000a42620004db565b5b62000a518e828f01620008a6565b98505060808c015167ffffffffffffffff81111562000a755762000a74620004db565b5b62000a838e828f01620008a6565b97505060a08c015167ffffffffffffffff81111562000aa75762000aa6620004db565b5b62000ab58e828f0162000759565b96505060c08c015167ffffffffffffffff81111562000ad95762000ad8620004db565b5b62000ae78e828f01620008a6565b95505060e08c015167ffffffffffffffff81111562000b0b5762000b0a620004db565b5b62000b198e828f0162000759565b9450506101008c015167ffffffffffffffff81111562000b3e5762000b3d620004db565b5b62000b4c8e828f01620008a6565b9350506101208c015167ffffffffffffffff81111562000b715762000b70620004db565b5b62000b7f8e828f0162000957565b9250506101408c015167ffffffffffffffff81111562000ba45762000ba3620004db565b5b62000bb28e828f0162000621565b9150509295989b509295989b9093969950565b5f81519050919050565b7f4e487b71000000000000000000000000000000000000000000000000000000005f52602260045260245ffd5b5f600282049050600182168062000c1457607f821691505b60208210810362000c2a5762000c2962000bcf565b5b50919050565b5f819050815f5260205f209050919050565b5f6020601f8301049050919050565b5f82821b905092915050565b5f6008830262000c8e7fffffffffffffffffffffffffffffffffffffffffffffffffffffffffffffffff8262000c51565b62000c9a868362000c51565b95508019841693508086168417925050509392505050565b5f819050919050565b5f62000cdb62000cd562000ccf84620007fb565b62000cb2565b620007fb565b9050919050565b5f819050919050565b62000cf68362000cbb565b62000d0e62000d058262000ce2565b84845462000c5d565b825550505050565b5f90565b62000d2462000d16565b62000d3181848462000ceb565b505050565b5b8181101562000d585762000d4c5f8262000d1a565b60018101905062000d37565b5050565b601f82111562000da75762000d718162000c30565b62000d7c8462000c42565b8101602085101562000d8c578190505b62000da462000d9b8562000c42565b83018262000d36565b50505b505050565b5f82821c905092915050565b5f62000dc95f198460080262000dac565b1980831691505092915050565b5f62000de3838362000db8565b9150826002028217905092915050565b62000dfe8262000bc5565b67ffffffffffffffff81111562000e1a5762000e19620004f7565b5b62000e26825462000bfc565b62000e3382828562000d5c565b5f60209050601f83116001811462000e69575f841562000e54578287015190505b62000e60858262000dd6565b86555062000ecf565b601f19841662000e798662000c30565b5f5b8281101562000ea25784890151825560018201915060208501945060208101905062000e7b565b8683101562000ec2578489015162000ebe601f89168262000db8565b8355505b6001600288020188555050505b505050505050565b7f4e487b71000000000000000000000000000000000000000000000000000000005f52603260045260245ffd5b7f4e487b71000000000000000000000000000000000000000000000000000000005f52601160045260245ffd5b5f62000f3d82620007fb565b91507fffffffffffffffffffffffffffffffffffffffffffffffffffffffffffffffff820362000f725762000f7162000f04565b5b600182019050919050565b5f81519050919050565b5f819050815f5260205f209050919050565b601f82111562000fe45762000fae8162000f87565b62000fb98462000c42565b8101602085101562000fc9578190505b62000fe162000fd88562000c42565b83018262000d36565b50505b505050565b62000ff48262000f7d565b67ffffffffffffffff81111562001010576200100f620004f7565b5b6200101c825462000bfc565b6200102982828562000f99565b5f60209050601f8311600181146200105f575f84156200104a578287015190505b62001056858262000dd6565b865550620010c5565b601f1984166200106f8662000f87565b5f5b82811015620010985784890151825560018201915060208501945060208101905062001071565b86831015620010b85784890151620010b4601f89168262000db8565b8355505b6001600288020188555050505b505050505050565b61128c80620010db5f395ff3fe608060405260043610610085575f3560e01c80636090e09e116100585780636090e09e146101445780636905a4311461016e5780637bf086211461019957806398f96072146101b5578063a8311aa8146101df57610085565b80631665ff7c1461008957806318a02891146100b35780631fec4699146100dd578063441b52511461011a575b5f80fd5b348015610094575f80fd5b5061009d610209565b6040516100aa9190610b7c565b60405180910390f35b3480156100be575f80fd5b506100c76102c1565b6040516100d49190610c26565b60405180910390f35b3480156100e8575f80fd5b5061010360048036038101906100fe9190610ca4565b61034d565b604051610111929190610d86565b60405180910390f35b348015610125575f80fd5b5061012e61039e565b60405161013b9190610b7c565b60405180910390f35b34801561014f575f80fd5b50610158610456565b6040516101659190610e0d565b60405180910390f35b348015610179575f80fd5b506101826104e2565b604051610190929190610d86565b60405180910390f35b6101b360048036038101906101ae9190610e92565b6104f7565b005b3480156101c0575f80fd5b506101c9610653565b6040516101d69190610f2b565b60405180910390f35b3480156101ea575f80fd5b506101f3610678565b6040516102009190610f44565b60405180910390f35b60605f610216600661075e565b67ffffffffffffffff81111561022f5761022e610f64565b5b60405190808252806020026020018201604052801561025d5781602001602082028036833780820191505090505b5090505f5b61026c600661075e565b8110156102b95761028781600661077190919063ffffffff16565b82828151811061029a57610299610f91565b5b60200260200101818152505080806102b190610feb565b915050610262565b508091505090565b600d80546102ce9061105f565b80601f01602080910402602001604051908101604052809291908181526020018280546102fa9061105f565b80156103455780601f1061031c57610100808354040283529160200191610345565b820191905f5260205f20905b81548152906001019060200180831161032857829003601f168201915b505050505081565b606080610395600b5f8573ffffffffffffffffffffffffffffffffffffffff1673ffffffffffffffffffffffffffffffffffffffff1681526020019081526020015f20610788565b91509150915091565b60605f6103ab600461075e565b67ffffffffffffffff8111156103c4576103c3610f64565b5b6040519080825280602002602001820160405280156103f25781602001602082028036833780820191505090505b5090505f5b610401600461075e565b81101561044e5761041c81600461077190919063ffffffff16565b82828151811061042f5761042e610f91565b5b602002602001018181525050808061044690610feb565b9150506103f7565b508091505090565b600c80546104639061105f565b80601f016020809104026020016040519081016040528092919081815260200182805461048f9061105f565b80156104da5780601f106104b1576101008083540402835291602001916104da565b820191905f5260205f20905b8154815290600101906020018083116104bd57829003601f168201915b505050505081565b6060806104ef6008610788565b915091509091565b5f8190505f610541600b5f8673ffffffffffffffffffffffffffffffffffffffff1673ffffffffffffffffffffffffffffffffffffffff1681526020019081526020015f20610925565b90505f8114610609575f5b81811015610607575f806105a583600b5f8a73ffffffffffffffffffffffffffffffffffffffff1673ffffffffffffffffffffffffffffffffffffffff1681526020019081526020015f2061093890919063ffffffff16565b915091505f6105d060646105c2848a61095f90919063ffffffff16565b61097490919063ffffffff16565b90506105dc83826104f7565b6105ef818761098990919063ffffffff16565b955050505080806105ff90610feb565b91505061054c565b505b8373ffffffffffffffffffffffffffffffffffffffff166108fc8390811502906040515f60405180830381858888f1935050505015801561064c573d5f803e3d5ffd5b5050505050565b60035f9054906101000a900473ffffffffffffffffffffffffffffffffffffffff1681565b60605f610685600161099e565b67ffffffffffffffff81111561069e5761069d610f64565b5b6040519080825280602002602001820160405280156106cc5781602001602082028036833780820191505090505b5090505f5b6106db600161099e565b811015610756576106f68160016109b190919063ffffffff16565b82828151811061070957610708610f91565b5b602002602001019073ffffffffffffffffffffffffffffffffffffffff16908173ffffffffffffffffffffffffffffffffffffffff1681525050808061074e90610feb565b9150506106d1565b508091505090565b5f61076a825f016109c8565b9050919050565b5f61077e835f01836109d7565b5f1c905092915050565b6060805f610797845f01610a46565b90505f81116107db576040517f08c379a00000000000000000000000000000000000000000000000000000000081526004016107d2906110d9565b60405180910390fd5b5f8167ffffffffffffffff8111156107f6576107f5610f64565b5b6040519080825280602002602001820160405280156108245781602001602082028036833780820191505090505b5090505f8267ffffffffffffffff81111561084257610841610f64565b5b6040519080825280602002602001820160405280156108705781602001602082028036833780820191505090505b5090505f5b83811015610916575f8061088b895f0184610a59565b91509150815f1c8584815181106108a5576108a4610f91565b5b602002602001019073ffffffffffffffffffffffffffffffffffffffff16908173ffffffffffffffffffffffffffffffffffffffff1681525050805f1c8484815181106108f5576108f4610f91565b5b6020026020010181815250505050808061090e90610feb565b915050610875565b50818194509450505050915091565b5f610931825f01610a46565b9050919050565b5f805f80610948865f0186610a59565b91509150815f1c815f1c9350935050509250929050565b5f818361096c91906110f7565b905092915050565b5f81836109819190611165565b905092915050565b5f81836109969190611195565b905092915050565b5f6109aa825f016109c8565b9050919050565b5f6109be835f01836109d7565b5f1c905092915050565b5f815f01805490509050919050565b5f81835f018054905011610a20576040517f08c379a0000000000000000000000000000000000000000000000000000000008152600401610a1790611238565b60405180910390fd5b825f018281548110610a3557610a34610f91565b5b905f5260205f200154905092915050565b5f610a52825f01610a94565b9050919050565b5f805f610a7184865f01610aa790919063ffffffff16565b905080856002015f8381526020019081526020015f205492509250509250929050565b5f610aa0825f016109c8565b9050919050565b5f610ab4835f01836109d7565b905092915050565b5f81519050919050565b5f82825260208201905092915050565b5f819050602082019050919050565b5f819050919050565b610af781610ae5565b82525050565b5f610b088383610aee565b60208301905092915050565b5f602082019050919050565b5f610b2a82610abc565b610b348185610ac6565b9350610b3f83610ad6565b805f5b83811015610b6f578151610b568882610afd565b9750610b6183610b14565b925050600181019050610b42565b5085935050505092915050565b5f6020820190508181035f830152610b948184610b20565b905092915050565b5f81519050919050565b5f82825260208201905092915050565b5f5b83811015610bd3578082015181840152602081019050610bb8565b5f8484015250505050565b5f601f19601f8301169050919050565b5f610bf882610b9c565b610c028185610ba6565b9350610c12818560208601610bb6565b610c1b81610bde565b840191505092915050565b5f6020820190508181035f830152610c3e8184610bee565b905092915050565b5f80fd5b5f73ffffffffffffffffffffffffffffffffffffffff82169050919050565b5f610c7382610c4a565b9050919050565b610c8381610c69565b8114610c8d575f80fd5b50565b5f81359050610c9e81610c7a565b92915050565b5f60208284031215610cb957610cb8610c46565b5b5f610cc684828501610c90565b91505092915050565b5f81519050919050565b5f82825260208201905092915050565b5f819050602082019050919050565b610d0181610c69565b82525050565b5f610d128383610cf8565b60208301905092915050565b5f602082019050919050565b5f610d3482610ccf565b610d3e8185610cd9565b9350610d4983610ce9565b805f5b83811015610d79578151610d608882610d07565b9750610d6b83610d1e565b925050600181019050610d4c565b5085935050505092915050565b5f6040820190508181035f830152610d9e8185610d2a565b90508181036020830152610db28184610b20565b90509392505050565b5f81519050919050565b5f82825260208201905092915050565b5f610ddf82610dbb565b610de98185610dc5565b9350610df9818560208601610bb6565b610e0281610bde565b840191505092915050565b5f6020820190508181035f830152610e258184610dd5565b905092915050565b5f610e3782610c4a565b9050919050565b610e4781610e2d565b8114610e51575f80fd5b50565b5f81359050610e6281610e3e565b92915050565b610e7181610ae5565b8114610e7b575f80fd5b50565b5f81359050610e8c81610e68565b92915050565b5f8060408385031215610ea857610ea7610c46565b5b5f610eb585828601610e54565b9250506020610ec685828601610e7e565b9150509250929050565b5f819050919050565b5f610ef3610eee610ee984610c4a565b610ed0565b610c4a565b9050919050565b5f610f0482610ed9565b9050919050565b5f610f1582610efa565b9050919050565b610f2581610f0b565b82525050565b5f602082019050610f3e5f830184610f1c565b92915050565b5f6020820190508181035f830152610f5c8184610d2a565b905092915050565b7f4e487b71000000000000000000000000000000000000000000000000000000005f52604160045260245ffd5b7f4e487b71000000000000000000000000000000000000000000000000000000005f52603260045260245ffd5b7f4e487b71000000000000000000000000000000000000000000000000000000005f52601160045260245ffd5b5f610ff582610ae5565b91507fffffffffffffffffffffffffffffffffffffffffffffffffffffffffffffffff820361102757611026610fbe565b5b600182019050919050565b7f4e487b71000000000000000000000000000000000000000000000000000000005f52602260045260245ffd5b5f600282049050600182168061107657607f821691505b60208210810361108957611088611032565b5b50919050565b7f456d707479204d617000000000000000000000000000000000000000000000005f82015250565b5f6110c3600983610dc5565b91506110ce8261108f565b602082019050919050565b5f6020820190508181035f8301526110f0816110b7565b9050919050565b5f61110182610ae5565b915061110c83610ae5565b925082820261111a81610ae5565b9150828204841483151761113157611130610fbe565b5b5092915050565b7f4e487b71000000000000000000000000000000000000000000000000000000005f52601260045260245ffd5b5f61116f82610ae5565b915061117a83610ae5565b92508261118a57611189611138565b5b828204905092915050565b5f61119f82610ae5565b91506111aa83610ae5565b92508282039050818111156111c2576111c1610fbe565b5b92915050565b7f456e756d657261626c655365743a20696e646578206f7574206f6620626f756e5f8201527f6473000000000000000000000000000000000000000000000000000000000000602082015250565b5f611222602283610dc5565b915061122d826111c8565b604082019050919050565b5f6020820190508181035f83015261124f81611216565b905091905056fea2646970667358221220783621bf0d01b70b0de6d6bc5cb3704ae7ee9b7076e65a384af05c1197d3603864736f6c63430008140033",
  "immutableReferences": {},
  "source": "// SPDX-License-Identifier: MIT\npragma solidity ^0.8.0;\n\nimport \"./NFToken.sol\";\nimport \"./EnumerableMapAddressToUint.sol\";\nimport \"@openzeppelin/contracts/utils/math/SafeMath.sol\";\n\n//import \"@openzeppelin/contracts/utils/structs/EnumerableSet.sol\";\n\ncontract Contract {\n    using SafeMath for uint256;\n    using EnumerableSet for EnumerableSet.AddressSet;\n    using EnumerableSet for EnumerableSet.UintSet;\n    using EnumerableMap for EnumerableMap.AddressToUintMap;\n\n    // Contract unique identifier\n    bytes private _identifier;\n    // Contract parties address\n    EnumerableSet.AddressSet _parties;\n    // Contract deontic expression NFtoken\n    NFToken public _nfToken;\n    // Contract deontic expressions token id\n    EnumerableSet.UintSet _deonticExpressions;\n    // Contract objects token id\n    EnumerableSet.UintSet _objects;\n    // Contract relations with other contracts\n    EnumerableMap.AddressToUintMap _contractRelations;\n    // Contract related income percentages for payments\n    mapping(address => EnumerableMap.AddressToUintMap) _incomePercentages;\n    // Contract content URI\n    string public _contentUri;\n    // Contract content HASH\n    bytes public _contentHash;\n\n    constructor(\n        bytes memory identifier,\n        address[] memory parties,\n        NFToken nfToken,\n        uint256[] memory deonticExpressionsIds,\n        uint256[] memory objects,\n        address[] memory relatedContracts,\n        uint256[] memory relations,\n        address[] memory incomeBeneficiaries,\n        uint256[] memory incomePercentages,\n        string memory contentUri,\n        bytes memory contentHash\n    ) {\n        _identifier = identifier;\n        for (uint256 i = 0; i < parties.length; i++) {\n            _parties.add(parties[i]);\n        }\n        _nfToken = nfToken;\n        for (uint256 i = 0; i < deonticExpressionsIds.length; i++) {\n            _deonticExpressions.add(deonticExpressionsIds[i]);\n        }\n        for (uint256 i = 0; i < objects.length; i++) {\n            _objects.add(objects[i]);\n        }\n        for (uint256 i = 0; i < relatedContracts.length; i++) {\n            _contractRelations.set(relatedContracts[i], relations[i]);\n        }\n        for (uint256 i = 0; i < incomePercentages.length; ) {\n            EnumerableMap.AddressToUintMap storage incomeMap =\n                _incomePercentages[incomeBeneficiaries[i]];\n            uint256 shares = incomePercentages[i++];\n            for (uint256 j = 0; j < shares; j++) {\n                incomeMap.set(incomeBeneficiaries[i], incomePercentages[i++]);\n            }\n        }\n        _contentUri = contentUri;\n        _contentHash = contentHash;\n    }\n\n    function payTo(address payable beneficiary, uint256 amount) public payable {\n        uint256 finalAmount = amount;\n        uint256 l = _incomePercentages[beneficiary].length();\n        if (l != 0) {\n            for (uint256 i = 0; i < l; i++) {\n                (address incomeBeneficiary, uint256 incomePercentage) =\n                    _incomePercentages[beneficiary].at(i);\n                uint256 subAmount = amount.mul(incomePercentage).div(100);\n                payTo(payable(incomeBeneficiary), subAmount);\n                finalAmount = finalAmount.sub(subAmount);\n            }\n        }\n        beneficiary.transfer(finalAmount);\n    }\n\n    function getParties() public view returns (address[] memory) {\n        address[] memory parties = new address[](_parties.length());\n        for (uint256 i = 0; i < _parties.length(); i++) {\n            parties[i] = _parties.at(i);\n        }\n\n        return parties;\n    }\n\n    function getDeonticExpressions() public view returns (uint256[] memory) {\n        uint256[] memory deontics = new uint256[](_deonticExpressions.length());\n        for (uint256 i = 0; i < _deonticExpressions.length(); i++) {\n            deontics[i] = _deonticExpressions.at(i);\n        }\n\n        return deontics;\n    }\n\n    function getObjects() public view returns (uint256[] memory) {\n        uint256[] memory objects = new uint256[](_objects.length());\n        for (uint256 i = 0; i < _objects.length(); i++) {\n            objects[i] = _objects.at(i);\n        }\n\n        return objects;\n    }\n\n    function getContractRelations()\n        public\n        view\n        returns (address[] memory, uint256[] memory)\n    {\n        return _contractRelations.getAll();\n    }\n\n    function getIncomePercentagesBy(address sharer)\n        public\n        view\n        returns (address[] memory, uint256[] memory)\n    {\n        return _incomePercentages[sharer].getAll();\n    }\n}\n",
  "sourcePath": "/Users/miker/Workspace/mpeg/MPEG-21-Part-23-DLT-Manager/smart-contract-templates/eth/contracts/Contract.sol",
  "compiler": {
    "name": "solc",
    "version": "0.8.20+commit.a1b79de6.Emscripten.clang"
  },
  "schemaVersion": "3.4.14",
  "updatedAt": "2023-06-22T13:40:30.632Z",
  "devdoc": {
    "kind": "dev",
    "methods": {},
    "version": 1
  },
  "userdoc": {
    "kind": "user",
    "methods": {},
    "version": 1
  }
}