{
  "contractName": "Contract",
  "abi": [
    {
      "inputs": [
        {
          "internalType": "bytes",
          "name": "identifier",
          "type": "bytes"
        },
        {
          "internalType": "address[]",
          "name": "parties",
          "type": "address[]"
        },
        {
          "internalType": "contract NFToken",
          "name": "nfToken",
          "type": "address"
        },
        {
          "internalType": "uint256[]",
          "name": "deonticExpressionsIds",
          "type": "uint256[]"
        },
        {
          "internalType": "uint256[]",
          "name": "objects",
          "type": "uint256[]"
        },
        {
          "internalType": "address[]",
          "name": "relatedContracts",
          "type": "address[]"
        },
        {
          "internalType": "uint256[]",
          "name": "relations",
          "type": "uint256[]"
        },
        {
          "internalType": "address[]",
          "name": "incomeBeneficiaries",
          "type": "address[]"
        },
        {
          "internalType": "uint256[]",
          "name": "incomePercentages",
          "type": "uint256[]"
        },
        {
          "internalType": "string",
          "name": "contentUri",
          "type": "string"
        },
        {
          "internalType": "bytes",
          "name": "contentHash",
          "type": "bytes"
        }
      ],
      "stateMutability": "nonpayable",
      "type": "constructor"
    },
    {
      "inputs": [],
      "name": "_contentHash",
      "outputs": [
        {
          "internalType": "bytes",
          "name": "",
          "type": "bytes"
        }
      ],
      "stateMutability": "view",
      "type": "function"
    },
    {
      "inputs": [],
      "name": "_contentUri",
      "outputs": [
        {
          "internalType": "string",
          "name": "",
          "type": "string"
        }
      ],
      "stateMutability": "view",
      "type": "function"
    },
    {
      "inputs": [],
      "name": "_nfToken",
      "outputs": [
        {
          "internalType": "contract NFToken",
          "name": "",
          "type": "address"
        }
      ],
      "stateMutability": "view",
      "type": "function"
    },
    {
      "inputs": [
        {
          "internalType": "address payable",
          "name": "beneficiary",
          "type": "address"
        },
        {
          "internalType": "uint256",
          "name": "amount",
          "type": "uint256"
        }
      ],
      "name": "payTo",
      "outputs": [],
      "stateMutability": "payable",
      "type": "function"
    },
    {
      "inputs": [],
      "name": "getParties",
      "outputs": [
        {
          "internalType": "address[]",
          "name": "",
          "type": "address[]"
        }
      ],
      "stateMutability": "view",
      "type": "function"
    },
    {
      "inputs": [],
      "name": "getDeonticExpressions",
      "outputs": [
        {
          "internalType": "uint256[]",
          "name": "",
          "type": "uint256[]"
        }
      ],
      "stateMutability": "view",
      "type": "function"
    },
    {
      "inputs": [],
      "name": "getObjects",
      "outputs": [
        {
          "internalType": "uint256[]",
          "name": "",
          "type": "uint256[]"
        }
      ],
      "stateMutability": "view",
      "type": "function"
    },
    {
      "inputs": [],
      "name": "getContractRelations",
      "outputs": [
        {
          "internalType": "address[]",
          "name": "",
          "type": "address[]"
        },
        {
          "internalType": "uint256[]",
          "name": "",
          "type": "uint256[]"
        }
      ],
      "stateMutability": "view",
      "type": "function"
    },
    {
      "inputs": [
        {
          "internalType": "address",
          "name": "sharer",
          "type": "address"
        }
      ],
      "name": "getIncomePercentagesBy",
      "outputs": [
        {
          "internalType": "address[]",
          "name": "",
          "type": "address[]"
        },
        {
          "internalType": "uint256[]",
          "name": "",
          "type": "uint256[]"
        }
      ],
      "stateMutability": "view",
      "type": "function"
    }
  ],
  "bytecode": "0x60806040523480156200001157600080fd5b506040516200250d3803806200250d833981810160405281019062000037919062000a1c565b8a600090805190602001906200004f9291906200066e565b5060005b8a51811015620000d057620000b98b82815181106200009b577f4e487b7100000000000000000000000000000000000000000000000000000000600052603260045260246000fd5b60200260200101516001620004d960201b620008661790919060201c565b508080620000c79062000e04565b91505062000053565b5088600360006101000a81548173ffffffffffffffffffffffffffffffffffffffff021916908373ffffffffffffffffffffffffffffffffffffffff16021790555060005b885181101562000192576200017b8982815181106200015d577f4e487b7100000000000000000000000000000000000000000000000000000000600052603260045260246000fd5b602002602001015160046200051160201b620008961790919060201c565b508080620001899062000e04565b91505062000115565b5060005b87518110156200021357620001fc888281518110620001de577f4e487b7100000000000000000000000000000000000000000000000000000000600052603260045260246000fd5b602002602001015160066200051160201b620008961790919060201c565b5080806200020a9062000e04565b91505062000196565b5060005b8651811015620002d757620002c08782815181106200025f577f4e487b7100000000000000000000000000000000000000000000000000000000600052603260045260246000fd5b6020026020010151878381518110620002a1577f4e487b7100000000000000000000000000000000000000000000000000000000600052603260045260246000fd5b602002602001015160086200053360201b620008b0179092919060201c565b508080620002ce9062000e04565b91505062000217565b5060005b835181101562000495576000600b600087848151811062000325577f4e487b7100000000000000000000000000000000000000000000000000000000600052603260045260246000fd5b602002602001015173ffffffffffffffffffffffffffffffffffffffff1673ffffffffffffffffffffffffffffffffffffffff16815260200190815260200160002090506000858380620003799062000e04565b945081518110620003b3577f4e487b7100000000000000000000000000000000000000000000000000000000600052603260045260246000fd5b6020026020010151905060005b818110156200048c576200047588858151811062000407577f4e487b7100000000000000000000000000000000000000000000000000000000600052603260045260246000fd5b60200260200101518886806200041d9062000e04565b97508151811062000457577f4e487b7100000000000000000000000000000000000000000000000000000000600052603260045260246000fd5b6020026020010151856200053360201b620008b0179092919060201c565b508080620004839062000e04565b915050620003c0565b505050620002db565b5081600c9080519060200190620004ae929190620006ff565b5080600d9080519060200190620004c79291906200066e565b50505050505050505050505062000f3e565b600062000509836000018373ffffffffffffffffffffffffffffffffffffffff1660001b6200057060201b60201c565b905092915050565b60006200052b836000018360001b6200057060201b60201c565b905092915050565b600062000567846000018473ffffffffffffffffffffffffffffffffffffffff1660001b8460001b620005ea60201b60201c565b90509392505050565b60006200058483836200062c60201b60201c565b620005df578260000182908060018154018082558091505060019003906000526020600020016000909190919091505582600001805490508360010160008481526020019081526020016000208190555060019050620005e4565b600090505b92915050565b600081846002016000858152602001908152602001600020819055506200062383856000016200064f60201b620008e51790919060201c565b90509392505050565b600080836001016000848152602001908152602001600020541415905092915050565b60006200066683600001836200057060201b60201c565b905092915050565b8280546200067c9062000d98565b90600052602060002090601f016020900481019282620006a05760008555620006ec565b82601f10620006bb57805160ff1916838001178555620006ec565b82800160010185558215620006ec579182015b82811115620006eb578251825591602001919060010190620006ce565b5b509050620006fb919062000790565b5090565b8280546200070d9062000d98565b90600052602060002090601f0160209004810192826200073157600085556200077d565b82601f106200074c57805160ff19168380011785556200077d565b828001600101855582156200077d579182015b828111156200077c5782518255916020019190600101906200075f565b5b5090506200078c919062000790565b5090565b5b80821115620007ab57600081600090555060010162000791565b5090565b6000620007c6620007c08462000c46565b62000c1d565b90508083825260208201905082856020860282011115620007e657600080fd5b60005b858110156200081a5781620007ff888262000923565b845260208401935060208301925050600181019050620007e9565b5050509392505050565b60006200083b620008358462000c75565b62000c1d565b905080838252602082019050828560208602820111156200085b57600080fd5b60005b858110156200088f578162000874888262000a05565b8452602084019350602083019250506001810190506200085e565b5050509392505050565b6000620008b0620008aa8462000ca4565b62000c1d565b905082815260208101848484011115620008c957600080fd5b620008d684828562000d62565b509392505050565b6000620008f5620008ef8462000cda565b62000c1d565b9050828152602081018484840111156200090e57600080fd5b6200091b84828562000d62565b509392505050565b600081519050620009348162000ef0565b92915050565b600082601f8301126200094c57600080fd5b81516200095e848260208601620007af565b91505092915050565b600082601f8301126200097957600080fd5b81516200098b84826020860162000824565b91505092915050565b600082601f830112620009a657600080fd5b8151620009b884826020860162000899565b91505092915050565b600081519050620009d28162000f0a565b92915050565b600082601f830112620009ea57600080fd5b8151620009fc848260208601620008de565b91505092915050565b60008151905062000a168162000f24565b92915050565b60008060008060008060008060008060006101608c8e03121562000a3f57600080fd5b60008c015167ffffffffffffffff81111562000a5a57600080fd5b62000a688e828f0162000994565b9b505060208c015167ffffffffffffffff81111562000a8657600080fd5b62000a948e828f016200093a565b9a5050604062000aa78e828f01620009c1565b99505060608c015167ffffffffffffffff81111562000ac557600080fd5b62000ad38e828f0162000967565b98505060808c015167ffffffffffffffff81111562000af157600080fd5b62000aff8e828f0162000967565b97505060a08c015167ffffffffffffffff81111562000b1d57600080fd5b62000b2b8e828f016200093a565b96505060c08c015167ffffffffffffffff81111562000b4957600080fd5b62000b578e828f0162000967565b95505060e08c015167ffffffffffffffff81111562000b7557600080fd5b62000b838e828f016200093a565b9450506101008c015167ffffffffffffffff81111562000ba257600080fd5b62000bb08e828f0162000967565b9350506101208c015167ffffffffffffffff81111562000bcf57600080fd5b62000bdd8e828f01620009d8565b9250506101408c015167ffffffffffffffff81111562000bfc57600080fd5b62000c0a8e828f0162000994565b9150509295989b509295989b9093969950565b600062000c2962000c3c565b905062000c37828262000dce565b919050565b6000604051905090565b600067ffffffffffffffff82111562000c645762000c6362000eb0565b5b602082029050602081019050919050565b600067ffffffffffffffff82111562000c935762000c9262000eb0565b5b602082029050602081019050919050565b600067ffffffffffffffff82111562000cc25762000cc162000eb0565b5b62000ccd8262000edf565b9050602081019050919050565b600067ffffffffffffffff82111562000cf85762000cf762000eb0565b5b62000d038262000edf565b9050602081019050919050565b600062000d1d8262000d38565b9050919050565b600062000d318262000d10565b9050919050565b600073ffffffffffffffffffffffffffffffffffffffff82169050919050565b6000819050919050565b60005b8381101562000d8257808201518184015260208101905062000d65565b8381111562000d92576000848401525b50505050565b6000600282049050600182168062000db157607f821691505b6020821081141562000dc85762000dc762000e81565b5b50919050565b62000dd98262000edf565b810181811067ffffffffffffffff8211171562000dfb5762000dfa62000eb0565b5b80604052505050565b600062000e118262000d58565b91507fffffffffffffffffffffffffffffffffffffffffffffffffffffffffffffffff82141562000e475762000e4662000e52565b5b600182019050919050565b7f4e487b7100000000000000000000000000000000000000000000000000000000600052601160045260246000fd5b7f4e487b7100000000000000000000000000000000000000000000000000000000600052602260045260246000fd5b7f4e487b7100000000000000000000000000000000000000000000000000000000600052604160045260246000fd5b6000601f19601f8301169050919050565b62000efb8162000d10565b811462000f0757600080fd5b50565b62000f158162000d24565b811462000f2157600080fd5b50565b62000f2f8162000d58565b811462000f3b57600080fd5b50565b6115bf8062000f4e6000396000f3fe6080604052600436106100865760003560e01c80636090e09e116100595780636090e09e1461014a5780636905a431146101755780637bf08621146101a157806398f96072146101bd578063a8311aa8146101e857610086565b80631665ff7c1461008b57806318a02891146100b65780631fec4699146100e1578063441b52511461011f575b600080fd5b34801561009757600080fd5b506100a0610213565b6040516100ad91906110e4565b60405180910390f35b3480156100c257600080fd5b506100cb610319565b6040516100d89190611106565b60405180910390f35b3480156100ed57600080fd5b5061010860048036038101906101039190610e55565b6103a7565b6040516101169291906110ad565b60405180910390f35b34801561012b57600080fd5b506101346103fa565b60405161014191906110e4565b60405180910390f35b34801561015657600080fd5b5061015f610500565b60405161016c9190611143565b60405180910390f35b34801561018157600080fd5b5061018a61058e565b6040516101989291906110ad565b60405180910390f35b6101bb60048036038101906101b69190610e7e565b6105a3565b005b3480156101c957600080fd5b506101d261070c565b6040516101df9190611128565b60405180910390f35b3480156101f457600080fd5b506101fd610732565b60405161020a919061108b565b60405180910390f35b6060600061022160066108fc565b67ffffffffffffffff811115610260577f4e487b7100000000000000000000000000000000000000000000000000000000600052604160045260246000fd5b60405190808252806020026020018201604052801561028e5781602001602082028036833780820191505090505b50905060005b61029e60066108fc565b811015610311576102b981600661091190919063ffffffff16565b8282815181106102f2577f4e487b7100000000000000000000000000000000000000000000000000000000600052603260045260246000fd5b6020026020010181815250508080610309906113e5565b915050610294565b508091505090565b600d8054610326906113b3565b80601f0160208091040260200160405190810160405280929190818152602001828054610352906113b3565b801561039f5780601f106103745761010080835404028352916020019161039f565b820191906000526020600020905b81548152906001019060200180831161038257829003601f168201915b505050505081565b6060806103f1600b60008573ffffffffffffffffffffffffffffffffffffffff1673ffffffffffffffffffffffffffffffffffffffff16815260200190815260200160002061092b565b91509150915091565b6060600061040860046108fc565b67ffffffffffffffff811115610447577f4e487b7100000000000000000000000000000000000000000000000000000000600052604160045260246000fd5b6040519080825280602002602001820160405280156104755781602001602082028036833780820191505090505b50905060005b61048560046108fc565b8110156104f8576104a081600461091190919063ffffffff16565b8282815181106104d9577f4e487b7100000000000000000000000000000000000000000000000000000000600052603260045260246000fd5b60200260200101818152505080806104f0906113e5565b91505061047b565b508091505090565b600c805461050d906113b3565b80601f0160208091040260200160405190810160405280929190818152602001828054610539906113b3565b80156105865780601f1061055b57610100808354040283529160200191610586565b820191906000526020600020905b81548152906001019060200180831161056957829003601f168201915b505050505081565b60608061059b600861092b565b915091509091565b600081905060006105f1600b60008673ffffffffffffffffffffffffffffffffffffffff1673ffffffffffffffffffffffffffffffffffffffff168152602001908152602001600020610b6a565b9050600081146106bf5760005b818110156106bd5760008061065a83600b60008a73ffffffffffffffffffffffffffffffffffffffff1673ffffffffffffffffffffffffffffffffffffffff168152602001908152602001600020610b7f90919063ffffffff16565b9150915060006106866064610678848a610bab90919063ffffffff16565b610bc190919063ffffffff16565b905061069283826105a3565b6106a58187610bd790919063ffffffff16565b955050505080806106b5906113e5565b9150506105fe565b505b8373ffffffffffffffffffffffffffffffffffffffff166108fc839081150290604051600060405180830381858888f19350505050158015610705573d6000803e3d6000fd5b5050505050565b600360009054906101000a900473ffffffffffffffffffffffffffffffffffffffff1681565b606060006107406001610bed565b67ffffffffffffffff81111561077f577f4e487b7100000000000000000000000000000000000000000000000000000000600052604160045260246000fd5b6040519080825280602002602001820160405280156107ad5781602001602082028036833780820191505090505b50905060005b6107bd6001610bed565b81101561085e576107d8816001610c0290919063ffffffff16565b828281518110610811577f4e487b7100000000000000000000000000000000000000000000000000000000600052603260045260246000fd5b602002602001019073ffffffffffffffffffffffffffffffffffffffff16908173ffffffffffffffffffffffffffffffffffffffff16815250508080610856906113e5565b9150506107b3565b508091505090565b600061088e836000018373ffffffffffffffffffffffffffffffffffffffff1660001b610c1c565b905092915050565b60006108a8836000018360001b610c1c565b905092915050565b60006108dc846000018473ffffffffffffffffffffffffffffffffffffffff1660001b8460001b610c8c565b90509392505050565b60006108f48360000183610c1c565b905092915050565b600061090a82600001610cc7565b9050919050565b60006109208360000183610cd8565b60001c905092915050565b606080600061093c84600001610d72565b905060008111610981576040517f08c379a000000000000000000000000000000000000000000000000000000000815260040161097890611185565b60405180910390fd5b60008167ffffffffffffffff8111156109c3577f4e487b7100000000000000000000000000000000000000000000000000000000600052604160045260246000fd5b6040519080825280602002602001820160405280156109f15781602001602082028036833780820191505090505b50905060008267ffffffffffffffff811115610a36577f4e487b7100000000000000000000000000000000000000000000000000000000600052604160045260246000fd5b604051908082528060200260200182016040528015610a645781602001602082028036833780820191505090505b50905060005b83811015610b5b57600080610a828960000184610d87565b915091508160001c858481518110610ac3577f4e487b7100000000000000000000000000000000000000000000000000000000600052603260045260246000fd5b602002602001019073ffffffffffffffffffffffffffffffffffffffff16908173ffffffffffffffffffffffffffffffffffffffff16815250508060001c848481518110610b3a577f4e487b7100000000000000000000000000000000000000000000000000000000600052603260045260246000fd5b60200260200101818152505050508080610b53906113e5565b915050610a6a565b50818194509450505050915091565b6000610b7882600001610d72565b9050919050565b600080600080610b928660000186610d87565b915091508160001c8160001c9350935050509250929050565b60008183610bb99190611280565b905092915050565b60008183610bcf919061124f565b905092915050565b60008183610be591906112da565b905092915050565b6000610bfb82600001610cc7565b9050919050565b6000610c118360000183610cd8565b60001c905092915050565b6000610c288383610dc7565b610c81578260000182908060018154018082558091505060019003906000526020600020016000909190919091505582600001805490508360010160008481526020019081526020016000208190555060019050610c86565b600090505b92915050565b60008184600201600085815260200190815260200160002081905550610cbe83856000016108e590919063ffffffff16565b90509392505050565b600081600001805490509050919050565b600081836000018054905011610d23576040517f08c379a0000000000000000000000000000000000000000000000000000000008152600401610d1a90611165565b60405180910390fd5b826000018281548110610d5f577f4e487b7100000000000000000000000000000000000000000000000000000000600052603260045260246000fd5b9060005260206000200154905092915050565b6000610d8082600001610dea565b9050919050565b6000806000610da28486600001610dff90919063ffffffff16565b9050808560020160008381526020019081526020016000205492509250509250929050565b600080836001016000848152602001908152602001600020541415905092915050565b6000610df882600001610cc7565b9050919050565b6000610e0e8360000183610cd8565b905092915050565b600081359050610e2581611544565b92915050565b600081359050610e3a8161155b565b92915050565b600081359050610e4f81611572565b92915050565b600060208284031215610e6757600080fd5b6000610e7584828501610e16565b91505092915050565b60008060408385031215610e9157600080fd5b6000610e9f85828601610e2b565b9250506020610eb085828601610e40565b9150509250929050565b6000610ec68383610eea565b60208301905092915050565b6000610ede838361107c565b60208301905092915050565b610ef38161130e565b82525050565b6000610f04826111c5565b610f0e818561120b565b9350610f19836111a5565b8060005b83811015610f4a578151610f318882610eba565b9750610f3c836111f1565b925050600181019050610f1d565b5085935050505092915050565b6000610f62826111d0565b610f6c818561121c565b9350610f77836111b5565b8060005b83811015610fa8578151610f8f8882610ed2565b9750610f9a836111fe565b925050600181019050610f7b565b5085935050505092915050565b6000610fc0826111db565b610fca818561122d565b9350610fda818560208601611380565b610fe3816114bb565b840191505092915050565b610ff78161135c565b82525050565b6000611008826111e6565b611012818561123e565b9350611022818560208601611380565b61102b816114bb565b840191505092915050565b600061104360228361123e565b915061104e826114cc565b604082019050919050565b600061106660098361123e565b91506110718261151b565b602082019050919050565b61108581611352565b82525050565b600060208201905081810360008301526110a58184610ef9565b905092915050565b600060408201905081810360008301526110c78185610ef9565b905081810360208301526110db8184610f57565b90509392505050565b600060208201905081810360008301526110fe8184610f57565b905092915050565b600060208201905081810360008301526111208184610fb5565b905092915050565b600060208201905061113d6000830184610fee565b92915050565b6000602082019050818103600083015261115d8184610ffd565b905092915050565b6000602082019050818103600083015261117e81611036565b9050919050565b6000602082019050818103600083015261119e81611059565b9050919050565b6000819050602082019050919050565b6000819050602082019050919050565b600081519050919050565b600081519050919050565b600081519050919050565b600081519050919050565b6000602082019050919050565b6000602082019050919050565b600082825260208201905092915050565b600082825260208201905092915050565b600082825260208201905092915050565b600082825260208201905092915050565b600061125a82611352565b915061126583611352565b9250826112755761127461145d565b5b828204905092915050565b600061128b82611352565b915061129683611352565b9250817fffffffffffffffffffffffffffffffffffffffffffffffffffffffffffffffff04831182151516156112cf576112ce61142e565b5b828202905092915050565b60006112e582611352565b91506112f083611352565b9250828210156113035761130261142e565b5b828203905092915050565b600061131982611332565b9050919050565b600061132b82611332565b9050919050565b600073ffffffffffffffffffffffffffffffffffffffff82169050919050565b6000819050919050565b60006113678261136e565b9050919050565b600061137982611332565b9050919050565b60005b8381101561139e578082015181840152602081019050611383565b838111156113ad576000848401525b50505050565b600060028204905060018216806113cb57607f821691505b602082108114156113df576113de61148c565b5b50919050565b60006113f082611352565b91507fffffffffffffffffffffffffffffffffffffffffffffffffffffffffffffffff8214156114235761142261142e565b5b600182019050919050565b7f4e487b7100000000000000000000000000000000000000000000000000000000600052601160045260246000fd5b7f4e487b7100000000000000000000000000000000000000000000000000000000600052601260045260246000fd5b7f4e487b7100000000000000000000000000000000000000000000000000000000600052602260045260246000fd5b6000601f19601f8301169050919050565b7f456e756d657261626c655365743a20696e646578206f7574206f6620626f756e60008201527f6473000000000000000000000000000000000000000000000000000000000000602082015250565b7f456d707479204d61700000000000000000000000000000000000000000000000600082015250565b61154d8161130e565b811461155857600080fd5b50565b61156481611320565b811461156f57600080fd5b50565b61157b81611352565b811461158657600080fd5b5056fea2646970667358221220df0df141436679018c1dbcc5ac45f321982912fa3b97a72ff6a8922a61eb608564736f6c63430008030033",
  "immutableReferences": {},
  "source": "// SPDX-License-Identifier: MIT\npragma solidity ^0.8.0;\n\nimport \"./NFToken.sol\";\nimport \"./EnumerableMapAddressToUint.sol\";\nimport \"@openzeppelin/contracts/utils/math/SafeMath.sol\";\n\n//import \"@openzeppelin/contracts/utils/structs/EnumerableSet.sol\";\n\ncontract Contract {\n    using SafeMath for uint256;\n    using EnumerableSet for EnumerableSet.AddressSet;\n    using EnumerableSet for EnumerableSet.UintSet;\n    using EnumerableMap for EnumerableMap.AddressToUintMap;\n\n    // Contract unique identifier\n    bytes private _identifier;\n    // Contract parties address\n    EnumerableSet.AddressSet _parties;\n    // Contract deontic expression NFtoken\n    NFToken public _nfToken;\n    // Contract deontic expressions token id\n    EnumerableSet.UintSet _deonticExpressions;\n    // Contract objects token id\n    EnumerableSet.UintSet _objects;\n    // Contract relations with other contracts\n    EnumerableMap.AddressToUintMap _contractRelations;\n    // Contract related income percentages for payments\n    mapping(address => EnumerableMap.AddressToUintMap) _incomePercentages;\n    // Contract content URI\n    string public _contentUri;\n    // Contract content HASH\n    bytes public _contentHash;\n\n    constructor(\n        bytes memory identifier,\n        address[] memory parties,\n        NFToken nfToken,\n        uint256[] memory deonticExpressionsIds,\n        uint256[] memory objects,\n        address[] memory relatedContracts,\n        uint256[] memory relations,\n        address[] memory incomeBeneficiaries,\n        uint256[] memory incomePercentages,\n        string memory contentUri,\n        bytes memory contentHash\n    ) {\n        _identifier = identifier;\n        for (uint256 i = 0; i < parties.length; i++) {\n            _parties.add(parties[i]);\n        }\n        _nfToken = nfToken;\n        for (uint256 i = 0; i < deonticExpressionsIds.length; i++) {\n            _deonticExpressions.add(deonticExpressionsIds[i]);\n        }\n        for (uint256 i = 0; i < objects.length; i++) {\n            _objects.add(objects[i]);\n        }\n        for (uint256 i = 0; i < relatedContracts.length; i++) {\n            _contractRelations.set(relatedContracts[i], relations[i]);\n        }\n        for (uint256 i = 0; i < incomePercentages.length; ) {\n            EnumerableMap.AddressToUintMap storage incomeMap =\n                _incomePercentages[incomeBeneficiaries[i]];\n            uint256 shares = incomePercentages[i++];\n            for (uint256 j = 0; j < shares; j++) {\n                incomeMap.set(incomeBeneficiaries[i], incomePercentages[i++]);\n            }\n        }\n        _contentUri = contentUri;\n        _contentHash = contentHash;\n    }\n\n    function payTo(address payable beneficiary, uint256 amount) public payable {\n        uint256 finalAmount = amount;\n        uint256 l = _incomePercentages[beneficiary].length();\n        if (l != 0) {\n            for (uint256 i = 0; i < l; i++) {\n                (address incomeBeneficiary, uint256 incomePercentage) =\n                    _incomePercentages[beneficiary].at(i);\n                uint256 subAmount = amount.mul(incomePercentage).div(100);\n                payTo(payable(incomeBeneficiary), subAmount);\n                finalAmount = finalAmount.sub(subAmount);\n            }\n        }\n        beneficiary.transfer(finalAmount);\n    }\n\n    function getParties() public view returns (address[] memory) {\n        address[] memory parties = new address[](_parties.length());\n        for (uint256 i = 0; i < _parties.length(); i++) {\n            parties[i] = _parties.at(i);\n        }\n\n        return parties;\n    }\n\n    function getDeonticExpressions() public view returns (uint256[] memory) {\n        uint256[] memory deontics = new uint256[](_deonticExpressions.length());\n        for (uint256 i = 0; i < _deonticExpressions.length(); i++) {\n            deontics[i] = _deonticExpressions.at(i);\n        }\n\n        return deontics;\n    }\n\n    function getObjects() public view returns (uint256[] memory) {\n        uint256[] memory objects = new uint256[](_objects.length());\n        for (uint256 i = 0; i < _objects.length(); i++) {\n            objects[i] = _objects.at(i);\n        }\n\n        return objects;\n    }\n\n    function getContractRelations()\n        public\n        view\n        returns (address[] memory, uint256[] memory)\n    {\n        return _contractRelations.getAll();\n    }\n\n    function getIncomePercentagesBy(address sharer)\n        public\n        view\n        returns (address[] memory, uint256[] memory)\n    {\n        return _incomePercentages[sharer].getAll();\n    }\n}\n",
  "sourcePath": "/home/miker/workspace/mpeg/fantastic-memory/smart-contract-template/contracts/Contract.sol",
  "compiler": {
    "name": "solc",
    "version": "0.8.3+commit.8d00100c.Emscripten.clang"
  },
  "schemaVersion": "3.3.1",
  "updatedAt": "2021-04-01T15:35:09.068Z",
  "devdoc": {
    "kind": "dev",
    "methods": {},
    "version": 1
  },
  "userdoc": {
    "kind": "user",
    "methods": {},
    "version": 1
  }
}