{
  "contractName": "NFToken",
  "abi": [
    {
      "inputs": [
        {
          "internalType": "string",
          "name": "name",
          "type": "string"
        },
        {
          "internalType": "string",
          "name": "symbol",
          "type": "string"
        }
      ],
      "stateMutability": "nonpayable",
      "type": "constructor"
    },
    {
      "anonymous": false,
      "inputs": [
        {
          "indexed": true,
          "internalType": "address",
          "name": "owner",
          "type": "address"
        },
        {
          "indexed": true,
          "internalType": "address",
          "name": "approved",
          "type": "address"
        },
        {
          "indexed": true,
          "internalType": "uint256",
          "name": "tokenId",
          "type": "uint256"
        }
      ],
      "name": "Approval",
      "type": "event"
    },
    {
      "anonymous": false,
      "inputs": [
        {
          "indexed": true,
          "internalType": "address",
          "name": "owner",
          "type": "address"
        },
        {
          "indexed": true,
          "internalType": "address",
          "name": "operator",
          "type": "address"
        },
        {
          "indexed": false,
          "internalType": "bool",
          "name": "approved",
          "type": "bool"
        }
      ],
      "name": "ApprovalForAll",
      "type": "event"
    },
    {
      "anonymous": false,
      "inputs": [
        {
          "indexed": true,
          "internalType": "address",
          "name": "from",
          "type": "address"
        },
        {
          "indexed": true,
          "internalType": "address",
          "name": "to",
          "type": "address"
        },
        {
          "indexed": true,
          "internalType": "uint256",
          "name": "tokenId",
          "type": "uint256"
        }
      ],
      "name": "Transfer",
      "type": "event"
    },
    {
      "inputs": [
        {
          "internalType": "address",
          "name": "to",
          "type": "address"
        },
        {
          "internalType": "uint256",
          "name": "tokenId",
          "type": "uint256"
        }
      ],
      "name": "approve",
      "outputs": [],
      "stateMutability": "nonpayable",
      "type": "function"
    },
    {
      "inputs": [
        {
          "internalType": "address",
          "name": "owner",
          "type": "address"
        }
      ],
      "name": "balanceOf",
      "outputs": [
        {
          "internalType": "uint256",
          "name": "",
          "type": "uint256"
        }
      ],
      "stateMutability": "view",
      "type": "function",
      "constant": true
    },
    {
      "inputs": [
        {
          "internalType": "uint256",
          "name": "tokenId",
          "type": "uint256"
        }
      ],
      "name": "getApproved",
      "outputs": [
        {
          "internalType": "address",
          "name": "",
          "type": "address"
        }
      ],
      "stateMutability": "view",
      "type": "function",
      "constant": true
    },
    {
      "inputs": [
        {
          "internalType": "address",
          "name": "owner",
          "type": "address"
        },
        {
          "internalType": "address",
          "name": "operator",
          "type": "address"
        }
      ],
      "name": "isApprovedForAll",
      "outputs": [
        {
          "internalType": "bool",
          "name": "",
          "type": "bool"
        }
      ],
      "stateMutability": "view",
      "type": "function",
      "constant": true
    },
    {
      "inputs": [],
      "name": "name",
      "outputs": [
        {
          "internalType": "string",
          "name": "",
          "type": "string"
        }
      ],
      "stateMutability": "view",
      "type": "function",
      "constant": true
    },
    {
      "inputs": [
        {
          "internalType": "uint256",
          "name": "tokenId",
          "type": "uint256"
        }
      ],
      "name": "ownerOf",
      "outputs": [
        {
          "internalType": "address",
          "name": "",
          "type": "address"
        }
      ],
      "stateMutability": "view",
      "type": "function",
      "constant": true
    },
    {
      "inputs": [
        {
          "internalType": "address",
          "name": "from",
          "type": "address"
        },
        {
          "internalType": "address",
          "name": "to",
          "type": "address"
        },
        {
          "internalType": "uint256",
          "name": "tokenId",
          "type": "uint256"
        }
      ],
      "name": "safeTransferFrom",
      "outputs": [],
      "stateMutability": "nonpayable",
      "type": "function"
    },
    {
      "inputs": [
        {
          "internalType": "address",
          "name": "from",
          "type": "address"
        },
        {
          "internalType": "address",
          "name": "to",
          "type": "address"
        },
        {
          "internalType": "uint256",
          "name": "tokenId",
          "type": "uint256"
        },
        {
          "internalType": "bytes",
          "name": "_data",
          "type": "bytes"
        }
      ],
      "name": "safeTransferFrom",
      "outputs": [],
      "stateMutability": "nonpayable",
      "type": "function"
    },
    {
      "inputs": [
        {
          "internalType": "address",
          "name": "operator",
          "type": "address"
        },
        {
          "internalType": "bool",
          "name": "approved",
          "type": "bool"
        }
      ],
      "name": "setApprovalForAll",
      "outputs": [],
      "stateMutability": "nonpayable",
      "type": "function"
    },
    {
      "inputs": [
        {
          "internalType": "bytes4",
          "name": "interfaceId",
          "type": "bytes4"
        }
      ],
      "name": "supportsInterface",
      "outputs": [
        {
          "internalType": "bool",
          "name": "",
          "type": "bool"
        }
      ],
      "stateMutability": "view",
      "type": "function",
      "constant": true
    },
    {
      "inputs": [],
      "name": "symbol",
      "outputs": [
        {
          "internalType": "string",
          "name": "",
          "type": "string"
        }
      ],
      "stateMutability": "view",
      "type": "function",
      "constant": true
    },
    {
      "inputs": [
        {
          "internalType": "uint256",
          "name": "tokenId",
          "type": "uint256"
        }
      ],
      "name": "tokenURI",
      "outputs": [
        {
          "internalType": "string",
          "name": "",
          "type": "string"
        }
      ],
      "stateMutability": "view",
      "type": "function",
      "constant": true
    },
    {
      "inputs": [
        {
          "internalType": "address",
          "name": "from",
          "type": "address"
        },
        {
          "internalType": "address",
          "name": "to",
          "type": "address"
        },
        {
          "internalType": "uint256",
          "name": "tokenId",
          "type": "uint256"
        }
      ],
      "name": "transferFrom",
      "outputs": [],
      "stateMutability": "nonpayable",
      "type": "function"
    },
    {
      "inputs": [
        {
          "internalType": "address",
          "name": "receiver",
          "type": "address"
        },
        {
          "internalType": "string",
          "name": "tokenURI",
          "type": "string"
        }
      ],
      "name": "newToken",
      "outputs": [
        {
          "internalType": "uint256",
          "name": "",
          "type": "uint256"
        }
      ],
      "stateMutability": "nonpayable",
      "type": "function"
    }
  ],
  "bytecode": "0x608060405234801562000010575f80fd5b50604051620031bc380380620031bc8339818101604052810190620000369190620001ea565b8181815f9081620000489190620004a4565b5080600190816200005a9190620004a4565b505050505062000588565b5f604051905090565b5f80fd5b5f80fd5b5f80fd5b5f80fd5b5f601f19601f8301169050919050565b7f4e487b71000000000000000000000000000000000000000000000000000000005f52604160045260245ffd5b620000c6826200007e565b810181811067ffffffffffffffff82111715620000e857620000e76200008e565b5b80604052505050565b5f620000fc62000065565b90506200010a8282620000bb565b919050565b5f67ffffffffffffffff8211156200012c576200012b6200008e565b5b62000137826200007e565b9050602081019050919050565b5f5b838110156200016357808201518184015260208101905062000146565b5f8484015250505050565b5f620001846200017e846200010f565b620000f1565b905082815260208101848484011115620001a357620001a26200007a565b5b620001b084828562000144565b509392505050565b5f82601f830112620001cf57620001ce62000076565b5b8151620001e18482602086016200016e565b91505092915050565b5f80604083850312156200020357620002026200006e565b5b5f83015167ffffffffffffffff81111562000223576200022262000072565b5b6200023185828601620001b8565b925050602083015167ffffffffffffffff81111562000255576200025462000072565b5b6200026385828601620001b8565b9150509250929050565b5f81519050919050565b7f4e487b71000000000000000000000000000000000000000000000000000000005f52602260045260245ffd5b5f6002820490506001821680620002bc57607f821691505b602082108103620002d257620002d162000277565b5b50919050565b5f819050815f5260205f209050919050565b5f6020601f8301049050919050565b5f82821b905092915050565b5f60088302620003367fffffffffffffffffffffffffffffffffffffffffffffffffffffffffffffffff82620002f9565b620003428683620002f9565b95508019841693508086168417925050509392505050565b5f819050919050565b5f819050919050565b5f6200038c6200038662000380846200035a565b62000363565b6200035a565b9050919050565b5f819050919050565b620003a7836200036c565b620003bf620003b68262000393565b84845462000305565b825550505050565b5f90565b620003d5620003c7565b620003e28184846200039c565b505050565b5b818110156200040957620003fd5f82620003cb565b600181019050620003e8565b5050565b601f82111562000458576200042281620002d8565b6200042d84620002ea565b810160208510156200043d578190505b620004556200044c85620002ea565b830182620003e7565b50505b505050565b5f82821c905092915050565b5f6200047a5f19846008026200045d565b1980831691505092915050565b5f62000494838362000469565b9150826002028217905092915050565b620004af826200026d565b67ffffffffffffffff811115620004cb57620004ca6200008e565b5b620004d78254620002a4565b620004e48282856200040d565b5f60209050601f8311600181146200051a575f841562000505578287015190505b62000511858262000487565b86555062000580565b601f1984166200052a86620002d8565b5f5b8281101562000553578489015182556001820191506020850194506020810190506200052c565b868310156200057357848901516200056f601f89168262000469565b8355505b6001600288020188555050505b505050505050565b612c2680620005965f395ff3fe608060405234801561000f575f80fd5b50600436106100e8575f3560e01c80636352211e1161008a578063a22cb46511610064578063a22cb4651461026c578063b88d4fde14610288578063c87b56dd146102a4578063e985e9c5146102d4576100e8565b80636352211e146101ee57806370a082311461021e57806395d89b411461024e576100e8565b8063095ea7b3116100c6578063095ea7b31461016a57806323b872dd1461018657806342842e0e146101a2578063526f3322146101be576100e8565b806301ffc9a7146100ec57806306fdde031461011c578063081812fc1461013a575b5f80fd5b610106600480360381019061010191906117da565b610304565b604051610113919061181f565b60405180910390f35b6101246103e5565b60405161013191906118c2565b60405180910390f35b610154600480360381019061014f9190611915565b610474565b604051610161919061197f565b60405180910390f35b610184600480360381019061017f91906119c2565b6104f5565b005b6101a0600480360381019061019b9190611a00565b61060b565b005b6101bc60048036038101906101b79190611a00565b61066b565b005b6101d860048036038101906101d39190611b7c565b61068a565b6040516101e59190611be5565b60405180910390f35b61020860048036038101906102039190611915565b6106c0565b604051610215919061197f565b60405180910390f35b61023860048036038101906102339190611bfe565b61076c565b6040516102459190611be5565b60405180910390f35b610256610820565b60405161026391906118c2565b60405180910390f35b61028660048036038101906102819190611c53565b6108b0565b005b6102a2600480360381019061029d9190611d2f565b610a2b565b005b6102be60048036038101906102b99190611915565b610a8d565b6040516102cb91906118c2565b60405180910390f35b6102ee60048036038101906102e99190611daf565b610bd6565b6040516102fb919061181f565b60405180910390f35b5f7f80ac58cd000000000000000000000000000000000000000000000000000000007bffffffffffffffffffffffffffffffffffffffffffffffffffffffff1916827bffffffffffffffffffffffffffffffffffffffffffffffffffffffff191614806103ce57507f5b5e139f000000000000000000000000000000000000000000000000000000007bffffffffffffffffffffffffffffffffffffffffffffffffffffffff1916827bffffffffffffffffffffffffffffffffffffffffffffffffffffffff1916145b806103de57506103dd82610c64565b5b9050919050565b60605f80546103f390611e1a565b80601f016020809104026020016040519081016040528092919081815260200182805461041f90611e1a565b801561046a5780601f106104415761010080835404028352916020019161046a565b820191905f5260205f20905b81548152906001019060200180831161044d57829003601f168201915b5050505050905090565b5f61047e82610ccd565b6104bd576040517f08c379a00000000000000000000000000000000000000000000000000000000081526004016104b490611eba565b60405180910390fd5b60045f8381526020019081526020015f205f9054906101000a900473ffffffffffffffffffffffffffffffffffffffff169050919050565b5f6104ff826106c0565b90508073ffffffffffffffffffffffffffffffffffffffff168373ffffffffffffffffffffffffffffffffffffffff160361056f576040517f08c379a000000000000000000000000000000000000000000000000000000000815260040161056690611f48565b60405180910390fd5b8073ffffffffffffffffffffffffffffffffffffffff1661058e610d35565b73ffffffffffffffffffffffffffffffffffffffff1614806105bd57506105bc816105b7610d35565b610bd6565b5b6105fc576040517f08c379a00000000000000000000000000000000000000000000000000000000081526004016105f390611fd6565b60405180910390fd5b6106068383610d3c565b505050565b61061c610616610d35565b82610df2565b61065b576040517f08c379a000000000000000000000000000000000000000000000000000000000815260040161065290612064565b60405180910390fd5b610666838383610ece565b505050565b61068583838360405180602001604052805f815250610a2b565b505050565b5f610695600761111e565b5f6106a06007611132565b90506106ac848261113e565b6106b68184611302565b8091505092915050565b5f8060025f8481526020019081526020015f205f9054906101000a900473ffffffffffffffffffffffffffffffffffffffff1690505f73ffffffffffffffffffffffffffffffffffffffff168173ffffffffffffffffffffffffffffffffffffffff1603610763576040517f08c379a000000000000000000000000000000000000000000000000000000000815260040161075a906120f2565b60405180910390fd5b80915050919050565b5f8073ffffffffffffffffffffffffffffffffffffffff168273ffffffffffffffffffffffffffffffffffffffff16036107db576040517f08c379a00000000000000000000000000000000000000000000000000000000081526004016107d290612180565b60405180910390fd5b60035f8373ffffffffffffffffffffffffffffffffffffffff1673ffffffffffffffffffffffffffffffffffffffff1681526020019081526020015f20549050919050565b60606001805461082f90611e1a565b80601f016020809104026020016040519081016040528092919081815260200182805461085b90611e1a565b80156108a65780601f1061087d576101008083540402835291602001916108a6565b820191905f5260205f20905b81548152906001019060200180831161088957829003601f168201915b5050505050905090565b6108b8610d35565b73ffffffffffffffffffffffffffffffffffffffff168273ffffffffffffffffffffffffffffffffffffffff1603610925576040517f08c379a000000000000000000000000000000000000000000000000000000000815260040161091c906121e8565b60405180910390fd5b8060055f610931610d35565b73ffffffffffffffffffffffffffffffffffffffff1673ffffffffffffffffffffffffffffffffffffffff1681526020019081526020015f205f8473ffffffffffffffffffffffffffffffffffffffff1673ffffffffffffffffffffffffffffffffffffffff1681526020019081526020015f205f6101000a81548160ff0219169083151502179055508173ffffffffffffffffffffffffffffffffffffffff166109da610d35565b73ffffffffffffffffffffffffffffffffffffffff167f17307eab39ab6107e8899845ad3d59bd9653f200f220920489ca2b5937696c3183604051610a1f919061181f565b60405180910390a35050565b610a3c610a36610d35565b83610df2565b610a7b576040517f08c379a0000000000000000000000000000000000000000000000000000000008152600401610a7290612064565b60405180910390fd5b610a878484848461136d565b50505050565b6060610a9882610ccd565b610ad7576040517f08c379a0000000000000000000000000000000000000000000000000000000008152600401610ace90612276565b60405180910390fd5b5f60065f8481526020019081526020015f208054610af490611e1a565b80601f0160208091040260200160405190810160405280929190818152602001828054610b2090611e1a565b8015610b6b5780601f10610b4257610100808354040283529160200191610b6b565b820191905f5260205f20905b815481529060010190602001808311610b4e57829003601f168201915b505050505090505f610b7b6113c9565b90505f815103610b8f578192505050610bd1565b5f82511115610bc3578082604051602001610bab9291906122ce565b60405160208183030381529060405292505050610bd1565b610bcc846113df565b925050505b919050565b5f60055f8473ffffffffffffffffffffffffffffffffffffffff1673ffffffffffffffffffffffffffffffffffffffff1681526020019081526020015f205f8373ffffffffffffffffffffffffffffffffffffffff1673ffffffffffffffffffffffffffffffffffffffff1681526020019081526020015f205f9054906101000a900460ff16905092915050565b5f7f01ffc9a7000000000000000000000000000000000000000000000000000000007bffffffffffffffffffffffffffffffffffffffffffffffffffffffff1916827bffffffffffffffffffffffffffffffffffffffffffffffffffffffff1916149050919050565b5f8073ffffffffffffffffffffffffffffffffffffffff1660025f8481526020019081526020015f205f9054906101000a900473ffffffffffffffffffffffffffffffffffffffff1673ffffffffffffffffffffffffffffffffffffffff1614159050919050565b5f33905090565b8160045f8381526020019081526020015f205f6101000a81548173ffffffffffffffffffffffffffffffffffffffff021916908373ffffffffffffffffffffffffffffffffffffffff160217905550808273ffffffffffffffffffffffffffffffffffffffff16610dac836106c0565b73ffffffffffffffffffffffffffffffffffffffff167f8c5be1e5ebec7d5bd14f71427d1e84f3dd0314c0f7b2291e5b200ac8c7c3b92560405160405180910390a45050565b5f610dfc82610ccd565b610e3b576040517f08c379a0000000000000000000000000000000000000000000000000000000008152600401610e3290612361565b60405180910390fd5b5f610e45836106c0565b90508073ffffffffffffffffffffffffffffffffffffffff168473ffffffffffffffffffffffffffffffffffffffff161480610eb457508373ffffffffffffffffffffffffffffffffffffffff16610e9c84610474565b73ffffffffffffffffffffffffffffffffffffffff16145b80610ec55750610ec48185610bd6565b5b91505092915050565b8273ffffffffffffffffffffffffffffffffffffffff16610eee826106c0565b73ffffffffffffffffffffffffffffffffffffffff1614610f44576040517f08c379a0000000000000000000000000000000000000000000000000000000008152600401610f3b906123ef565b60405180910390fd5b5f73ffffffffffffffffffffffffffffffffffffffff168273ffffffffffffffffffffffffffffffffffffffff1603610fb2576040517f08c379a0000000000000000000000000000000000000000000000000000000008152600401610fa99061247d565b60405180910390fd5b610fbd838383611483565b610fc75f82610d3c565b600160035f8573ffffffffffffffffffffffffffffffffffffffff1673ffffffffffffffffffffffffffffffffffffffff1681526020019081526020015f205f82825461101491906124c8565b92505081905550600160035f8473ffffffffffffffffffffffffffffffffffffffff1673ffffffffffffffffffffffffffffffffffffffff1681526020019081526020015f205f82825461106891906124fb565b925050819055508160025f8381526020019081526020015f205f6101000a81548173ffffffffffffffffffffffffffffffffffffffff021916908373ffffffffffffffffffffffffffffffffffffffff160217905550808273ffffffffffffffffffffffffffffffffffffffff168473ffffffffffffffffffffffffffffffffffffffff167fddf252ad1be2c89b69c2b068fc378daa952ba7f163c4a11628f55a4df523b3ef60405160405180910390a4505050565b6001815f015f828254019250508190555050565b5f815f01549050919050565b5f73ffffffffffffffffffffffffffffffffffffffff168273ffffffffffffffffffffffffffffffffffffffff16036111ac576040517f08c379a00000000000000000000000000000000000000000000000000000000081526004016111a390612578565b60405180910390fd5b6111b581610ccd565b156111f5576040517f08c379a00000000000000000000000000000000000000000000000000000000081526004016111ec906125e0565b60405180910390fd5b6112005f8383611483565b600160035f8473ffffffffffffffffffffffffffffffffffffffff1673ffffffffffffffffffffffffffffffffffffffff1681526020019081526020015f205f82825461124d91906124fb565b925050819055508160025f8381526020019081526020015f205f6101000a81548173ffffffffffffffffffffffffffffffffffffffff021916908373ffffffffffffffffffffffffffffffffffffffff160217905550808273ffffffffffffffffffffffffffffffffffffffff165f73ffffffffffffffffffffffffffffffffffffffff167fddf252ad1be2c89b69c2b068fc378daa952ba7f163c4a11628f55a4df523b3ef60405160405180910390a45050565b61130b82610ccd565b61134a576040517f08c379a00000000000000000000000000000000000000000000000000000000081526004016113419061266e565b60405180910390fd5b8060065f8481526020019081526020015f2090816113689190612829565b505050565b611378848484610ece565b61138484848484611488565b6113c3576040517f08c379a00000000000000000000000000000000000000000000000000000000081526004016113ba90612968565b60405180910390fd5b50505050565b606060405180602001604052805f815250905090565b60606113ea82610ccd565b611429576040517f08c379a0000000000000000000000000000000000000000000000000000000008152600401611420906129f6565b60405180910390fd5b5f6114326113c9565b90505f8151116114505760405180602001604052805f81525061147b565b8061145a8461160a565b60405160200161146b9291906122ce565b6040516020818303038152906040525b915050919050565b505050565b5f6114a88473ffffffffffffffffffffffffffffffffffffffff16611763565b156115fd578373ffffffffffffffffffffffffffffffffffffffff1663150b7a026114d1610d35565b8786866040518563ffffffff1660e01b81526004016114f39493929190612a66565b6020604051808303815f875af192505050801561152e57506040513d601f19601f8201168201806040525081019061152b9190612ac4565b60015b6115ad573d805f811461155c576040519150601f19603f3d011682016040523d82523d5f602084013e611561565b606091505b505f8151036115a5576040517f08c379a000000000000000000000000000000000000000000000000000000000815260040161159c90612968565b60405180910390fd5b805181602001fd5b63150b7a0260e01b7bffffffffffffffffffffffffffffffffffffffffffffffffffffffff1916817bffffffffffffffffffffffffffffffffffffffffffffffffffffffff191614915050611602565b600190505b949350505050565b60605f8203611650576040518060400160405280600181526020017f3000000000000000000000000000000000000000000000000000000000000000815250905061175e565b5f8290505f5b5f821461167f57808061166890612aef565b915050600a826116789190612b63565b9150611656565b5f8167ffffffffffffffff81111561169a57611699611a58565b5b6040519080825280601f01601f1916602001820160405280156116cc5781602001600182028036833780820191505090505b5090505b5f8514611757576001826116e491906124c8565b9150600a856116f39190612b93565b60306116ff91906124fb565b60f81b81838151811061171557611714612bc3565b5b60200101907effffffffffffffffffffffffffffffffffffffffffffffffffffffffffffff191690815f1a905350600a856117509190612b63565b94506116d0565b8093505050505b919050565b5f80823b90505f8111915050919050565b5f604051905090565b5f80fd5b5f80fd5b5f7fffffffff0000000000000000000000000000000000000000000000000000000082169050919050565b6117b981611785565b81146117c3575f80fd5b50565b5f813590506117d4816117b0565b92915050565b5f602082840312156117ef576117ee61177d565b5b5f6117fc848285016117c6565b91505092915050565b5f8115159050919050565b61181981611805565b82525050565b5f6020820190506118325f830184611810565b92915050565b5f81519050919050565b5f82825260208201905092915050565b5f5b8381101561186f578082015181840152602081019050611854565b5f8484015250505050565b5f601f19601f8301169050919050565b5f61189482611838565b61189e8185611842565b93506118ae818560208601611852565b6118b78161187a565b840191505092915050565b5f6020820190508181035f8301526118da818461188a565b905092915050565b5f819050919050565b6118f4816118e2565b81146118fe575f80fd5b50565b5f8135905061190f816118eb565b92915050565b5f6020828403121561192a5761192961177d565b5b5f61193784828501611901565b91505092915050565b5f73ffffffffffffffffffffffffffffffffffffffff82169050919050565b5f61196982611940565b9050919050565b6119798161195f565b82525050565b5f6020820190506119925f830184611970565b92915050565b6119a18161195f565b81146119ab575f80fd5b50565b5f813590506119bc81611998565b92915050565b5f80604083850312156119d8576119d761177d565b5b5f6119e5858286016119ae565b92505060206119f685828601611901565b9150509250929050565b5f805f60608486031215611a1757611a1661177d565b5b5f611a24868287016119ae565b9350506020611a35868287016119ae565b9250506040611a4686828701611901565b9150509250925092565b5f80fd5b5f80fd5b7f4e487b71000000000000000000000000000000000000000000000000000000005f52604160045260245ffd5b611a8e8261187a565b810181811067ffffffffffffffff82111715611aad57611aac611a58565b5b80604052505050565b5f611abf611774565b9050611acb8282611a85565b919050565b5f67ffffffffffffffff821115611aea57611ae9611a58565b5b611af38261187a565b9050602081019050919050565b828183375f83830152505050565b5f611b20611b1b84611ad0565b611ab6565b905082815260208101848484011115611b3c57611b3b611a54565b5b611b47848285611b00565b509392505050565b5f82601f830112611b6357611b62611a50565b5b8135611b73848260208601611b0e565b91505092915050565b5f8060408385031215611b9257611b9161177d565b5b5f611b9f858286016119ae565b925050602083013567ffffffffffffffff811115611bc057611bbf611781565b5b611bcc85828601611b4f565b9150509250929050565b611bdf816118e2565b82525050565b5f602082019050611bf85f830184611bd6565b92915050565b5f60208284031215611c1357611c1261177d565b5b5f611c20848285016119ae565b91505092915050565b611c3281611805565b8114611c3c575f80fd5b50565b5f81359050611c4d81611c29565b92915050565b5f8060408385031215611c6957611c6861177d565b5b5f611c76858286016119ae565b9250506020611c8785828601611c3f565b9150509250929050565b5f67ffffffffffffffff821115611cab57611caa611a58565b5b611cb48261187a565b9050602081019050919050565b5f611cd3611cce84611c91565b611ab6565b905082815260208101848484011115611cef57611cee611a54565b5b611cfa848285611b00565b509392505050565b5f82601f830112611d1657611d15611a50565b5b8135611d26848260208601611cc1565b91505092915050565b5f805f8060808587031215611d4757611d4661177d565b5b5f611d54878288016119ae565b9450506020611d65878288016119ae565b9350506040611d7687828801611901565b925050606085013567ffffffffffffffff811115611d9757611d96611781565b5b611da387828801611d02565b91505092959194509250565b5f8060408385031215611dc557611dc461177d565b5b5f611dd2858286016119ae565b9250506020611de3858286016119ae565b9150509250929050565b7f4e487b71000000000000000000000000000000000000000000000000000000005f52602260045260245ffd5b5f6002820490506001821680611e3157607f821691505b602082108103611e4457611e43611ded565b5b50919050565b7f4552433732313a20617070726f76656420717565727920666f72206e6f6e65785f8201527f697374656e7420746f6b656e0000000000000000000000000000000000000000602082015250565b5f611ea4602c83611842565b9150611eaf82611e4a565b604082019050919050565b5f6020820190508181035f830152611ed181611e98565b9050919050565b7f4552433732313a20617070726f76616c20746f2063757272656e74206f776e655f8201527f7200000000000000000000000000000000000000000000000000000000000000602082015250565b5f611f32602183611842565b9150611f3d82611ed8565b604082019050919050565b5f6020820190508181035f830152611f5f81611f26565b9050919050565b7f4552433732313a20617070726f76652063616c6c6572206973206e6f74206f775f8201527f6e6572206e6f7220617070726f76656420666f7220616c6c0000000000000000602082015250565b5f611fc0603883611842565b9150611fcb82611f66565b604082019050919050565b5f6020820190508181035f830152611fed81611fb4565b9050919050565b7f4552433732313a207472616e736665722063616c6c6572206973206e6f74206f5f8201527f776e6572206e6f7220617070726f766564000000000000000000000000000000602082015250565b5f61204e603183611842565b915061205982611ff4565b604082019050919050565b5f6020820190508181035f83015261207b81612042565b9050919050565b7f4552433732313a206f776e657220717565727920666f72206e6f6e65786973745f8201527f656e7420746f6b656e0000000000000000000000000000000000000000000000602082015250565b5f6120dc602983611842565b91506120e782612082565b604082019050919050565b5f6020820190508181035f830152612109816120d0565b9050919050565b7f4552433732313a2062616c616e636520717565727920666f7220746865207a655f8201527f726f206164647265737300000000000000000000000000000000000000000000602082015250565b5f61216a602a83611842565b915061217582612110565b604082019050919050565b5f6020820190508181035f8301526121978161215e565b9050919050565b7f4552433732313a20617070726f766520746f2063616c6c6572000000000000005f82015250565b5f6121d2601983611842565b91506121dd8261219e565b602082019050919050565b5f6020820190508181035f8301526121ff816121c6565b9050919050565b7f45524337323155524953746f726167653a2055524920717565727920666f72205f8201527f6e6f6e6578697374656e7420746f6b656e000000000000000000000000000000602082015250565b5f612260603183611842565b915061226b82612206565b604082019050919050565b5f6020820190508181035f83015261228d81612254565b9050919050565b5f81905092915050565b5f6122a882611838565b6122b28185612294565b93506122c2818560208601611852565b80840191505092915050565b5f6122d9828561229e565b91506122e5828461229e565b91508190509392505050565b7f4552433732313a206f70657261746f7220717565727920666f72206e6f6e65785f8201527f697374656e7420746f6b656e0000000000000000000000000000000000000000602082015250565b5f61234b602c83611842565b9150612356826122f1565b604082019050919050565b5f6020820190508181035f8301526123788161233f565b9050919050565b7f4552433732313a207472616e73666572206f6620746f6b656e207468617420695f8201527f73206e6f74206f776e0000000000000000000000000000000000000000000000602082015250565b5f6123d9602983611842565b91506123e48261237f565b604082019050919050565b5f6020820190508181035f830152612406816123cd565b9050919050565b7f4552433732313a207472616e7366657220746f20746865207a65726f206164645f8201527f7265737300000000000000000000000000000000000000000000000000000000602082015250565b5f612467602483611842565b91506124728261240d565b604082019050919050565b5f6020820190508181035f8301526124948161245b565b9050919050565b7f4e487b71000000000000000000000000000000000000000000000000000000005f52601160045260245ffd5b5f6124d2826118e2565b91506124dd836118e2565b92508282039050818111156124f5576124f461249b565b5b92915050565b5f612505826118e2565b9150612510836118e2565b92508282019050808211156125285761252761249b565b5b92915050565b7f4552433732313a206d696e7420746f20746865207a65726f20616464726573735f82015250565b5f612562602083611842565b915061256d8261252e565b602082019050919050565b5f6020820190508181035f83015261258f81612556565b9050919050565b7f4552433732313a20746f6b656e20616c7265616479206d696e746564000000005f82015250565b5f6125ca601c83611842565b91506125d582612596565b602082019050919050565b5f6020820190508181035f8301526125f7816125be565b9050919050565b7f45524337323155524953746f726167653a2055524920736574206f66206e6f6e5f8201527f6578697374656e7420746f6b656e000000000000000000000000000000000000602082015250565b5f612658602e83611842565b9150612663826125fe565b604082019050919050565b5f6020820190508181035f8301526126858161264c565b9050919050565b5f819050815f5260205f209050919050565b5f6020601f8301049050919050565b5f82821b905092915050565b5f600883026126e87fffffffffffffffffffffffffffffffffffffffffffffffffffffffffffffffff826126ad565b6126f286836126ad565b95508019841693508086168417925050509392505050565b5f819050919050565b5f61272d612728612723846118e2565b61270a565b6118e2565b9050919050565b5f819050919050565b61274683612713565b61275a61275282612734565b8484546126b9565b825550505050565b5f90565b61276e612762565b61277981848461273d565b505050565b5b8181101561279c576127915f82612766565b60018101905061277f565b5050565b601f8211156127e1576127b28161268c565b6127bb8461269e565b810160208510156127ca578190505b6127de6127d68561269e565b83018261277e565b50505b505050565b5f82821c905092915050565b5f6128015f19846008026127e6565b1980831691505092915050565b5f61281983836127f2565b9150826002028217905092915050565b61283282611838565b67ffffffffffffffff81111561284b5761284a611a58565b5b6128558254611e1a565b6128608282856127a0565b5f60209050601f831160018114612891575f841561287f578287015190505b612889858261280e565b8655506128f0565b601f19841661289f8661268c565b5f5b828110156128c6578489015182556001820191506020850194506020810190506128a1565b868310156128e357848901516128df601f8916826127f2565b8355505b6001600288020188555050505b505050505050565b7f4552433732313a207472616e7366657220746f206e6f6e2045524337323152655f8201527f63656976657220696d706c656d656e7465720000000000000000000000000000602082015250565b5f612952603283611842565b915061295d826128f8565b604082019050919050565b5f6020820190508181035f83015261297f81612946565b9050919050565b7f4552433732314d657461646174613a2055524920717565727920666f72206e6f5f8201527f6e6578697374656e7420746f6b656e0000000000000000000000000000000000602082015250565b5f6129e0602f83611842565b91506129eb82612986565b604082019050919050565b5f6020820190508181035f830152612a0d816129d4565b9050919050565b5f81519050919050565b5f82825260208201905092915050565b5f612a3882612a14565b612a428185612a1e565b9350612a52818560208601611852565b612a5b8161187a565b840191505092915050565b5f608082019050612a795f830187611970565b612a866020830186611970565b612a936040830185611bd6565b8181036060830152612aa58184612a2e565b905095945050505050565b5f81519050612abe816117b0565b92915050565b5f60208284031215612ad957612ad861177d565b5b5f612ae684828501612ab0565b91505092915050565b5f612af9826118e2565b91507fffffffffffffffffffffffffffffffffffffffffffffffffffffffffffffffff8203612b2b57612b2a61249b565b5b600182019050919050565b7f4e487b71000000000000000000000000000000000000000000000000000000005f52601260045260245ffd5b5f612b6d826118e2565b9150612b78836118e2565b925082612b8857612b87612b36565b5b828204905092915050565b5f612b9d826118e2565b9150612ba8836118e2565b925082612bb857612bb7612b36565b5b828206905092915050565b7f4e487b71000000000000000000000000000000000000000000000000000000005f52603260045260245ffdfea2646970667358221220629d6fc0f9365da38b1186970df96a99947459d285697e0c7844cd644470260e64736f6c63430008140033",
  "immutableReferences": {},
  "source": "// SPDX-License-Identifier: MIT\npragma solidity ^0.8.0;\n\nimport \"@openzeppelin/contracts/token/ERC721/extensions/ERC721URIStorage.sol\";\nimport \"@openzeppelin/contracts/utils/Counters.sol\";\n\ncontract NFToken is ERC721URIStorage {\n    using Counters for Counters.Counter;\n\n    Counters.Counter private _tokenIds;\n\n    constructor(string memory name, string memory symbol)\n        ERC721(name, symbol)\n    {}\n\n    function newToken(address receiver, string memory tokenURI)\n        public\n        returns (uint256)\n    {\n        _tokenIds.increment();\n\n        uint256 newTokenId = _tokenIds.current();\n        _mint(receiver, newTokenId);\n        _setTokenURI(newTokenId, tokenURI);\n\n        return newTokenId;\n    }\n}\n",
  "sourcePath": "/Users/miker/Workspace/mpeg/MPEG-21-Part-23-DLT-Manager/smart-contract-templates/eth/contracts/NFToken.sol",
  "compiler": {
    "name": "solc",
    "version": "0.8.20+commit.a1b79de6.Emscripten.clang"
  },
  "schemaVersion": "3.4.14",
  "updatedAt": "2023-06-22T15:26:36.136Z",
  "networkType": "ethereum",
  "devdoc": {
    "events": {
      "Approval(address,address,uint256)": {
        "details": "Emitted when `owner` enables `approved` to manage the `tokenId` token."
      },
      "ApprovalForAll(address,address,bool)": {
        "details": "Emitted when `owner` enables or disables (`approved`) `operator` to manage all of its assets."
      },
      "Transfer(address,address,uint256)": {
        "details": "Emitted when `tokenId` token is transferred from `from` to `to`."
      }
    },
    "kind": "dev",
    "methods": {
      "approve(address,uint256)": {
        "details": "See {IERC721-approve}."
      },
      "balanceOf(address)": {
        "details": "See {IERC721-balanceOf}."
      },
      "getApproved(uint256)": {
        "details": "See {IERC721-getApproved}."
      },
      "isApprovedForAll(address,address)": {
        "details": "See {IERC721-isApprovedForAll}."
      },
      "name()": {
        "details": "See {IERC721Metadata-name}."
      },
      "ownerOf(uint256)": {
        "details": "See {IERC721-ownerOf}."
      },
      "safeTransferFrom(address,address,uint256)": {
        "details": "See {IERC721-safeTransferFrom}."
      },
      "safeTransferFrom(address,address,uint256,bytes)": {
        "details": "See {IERC721-safeTransferFrom}."
      },
      "setApprovalForAll(address,bool)": {
        "details": "See {IERC721-setApprovalForAll}."
      },
      "supportsInterface(bytes4)": {
        "details": "See {IERC165-supportsInterface}."
      },
      "symbol()": {
        "details": "See {IERC721Metadata-symbol}."
      },
      "tokenURI(uint256)": {
        "details": "See {IERC721Metadata-tokenURI}."
      },
      "transferFrom(address,address,uint256)": {
        "details": "See {IERC721-transferFrom}."
      }
    },
    "version": 1
  },
  "userdoc": {
    "kind": "user",
    "methods": {},
    "version": 1
  }
}